{
  "_format": "hh-sol-artifact-1",
  "contractName": "Dex",
  "sourceName": "contracts/Dex.sol",
  "abi": [
    {
      "inputs": [
        {
          "internalType": "address",
          "name": "collection",
          "type": "address"
        }
      ],
      "name": "CollectionNotAvailable",
      "type": "error"
    },
    {
      "inputs": [
        {
          "internalType": "address",
          "name": "paymentToken",
          "type": "address"
        }
      ],
      "name": "DecimalsNotSet",
      "type": "error"
    },
    {
      "inputs": [
        {
          "internalType": "address",
          "name": "caller",
          "type": "address"
        }
      ],
      "name": "OnlyAdminCanCall",
      "type": "error"
    },
    {
      "inputs": [
        {
          "internalType": "address",
          "name": "paymentToken",
          "type": "address"
        }
      ],
      "name": "PaymentTokenNotAvailable",
      "type": "error"
    },
    {
      "inputs": [],
      "name": "PriceMustBeGreaterThanZero",
      "type": "error"
    },
    {
      "inputs": [
        {
          "internalType": "uint256",
          "name": "tokenId",
          "type": "uint256"
        }
      ],
      "name": "TokenNotAvailable",
      "type": "error"
    },
    {
      "inputs": [],
      "name": "TokensAndDecimalsLengthMismatch",
      "type": "error"
    },
    {
      "inputs": [],
      "name": "TokensAndPriceLengthMismatch",
      "type": "error"
    },
    {
      "inputs": [],
      "name": "ZeroAddress",
      "type": "error"
    },
    {
      "anonymous": false,
      "inputs": [
        {
          "indexed": false,
          "internalType": "address",
          "name": "previousAdmin",
          "type": "address"
        },
        {
          "indexed": false,
          "internalType": "address",
          "name": "newAdmin",
          "type": "address"
        }
      ],
      "name": "AdminChanged",
      "type": "event"
    },
    {
      "anonymous": false,
      "inputs": [
        {
          "indexed": true,
          "internalType": "address",
          "name": "collection",
          "type": "address"
        },
        {
          "indexed": true,
          "internalType": "uint256",
          "name": "sku",
          "type": "uint256"
        },
        {
          "indexed": false,
          "internalType": "bool",
          "name": "isAvailable",
          "type": "bool"
        }
      ],
      "name": "AvailableStatusSet",
      "type": "event"
    },
    {
      "anonymous": false,
      "inputs": [
        {
          "indexed": true,
          "internalType": "address",
          "name": "beacon",
          "type": "address"
        }
      ],
      "name": "BeaconUpgraded",
      "type": "event"
    },
    {
      "anonymous": false,
      "inputs": [
        {
          "indexed": false,
          "internalType": "address",
          "name": "collection",
          "type": "address"
        }
      ],
      "name": "CollectionAdded",
      "type": "event"
    },
    {
      "anonymous": false,
      "inputs": [
        {
          "indexed": false,
          "internalType": "address",
          "name": "collection",
          "type": "address"
        }
      ],
      "name": "CollectionRemoved",
      "type": "event"
    },
    {
      "anonymous": false,
      "inputs": [
        {
          "indexed": true,
          "internalType": "address",
          "name": "paymentToken",
          "type": "address"
        },
        {
          "indexed": false,
          "internalType": "uint256",
          "name": "decimals",
          "type": "uint256"
        }
      ],
      "name": "DecimalSet",
      "type": "event"
    },
    {
      "anonymous": false,
      "inputs": [
        {
          "indexed": false,
          "internalType": "uint8",
          "name": "version",
          "type": "uint8"
        }
      ],
      "name": "Initialized",
      "type": "event"
    },
    {
      "anonymous": false,
      "inputs": [
        {
          "indexed": true,
          "internalType": "address",
          "name": "collection",
          "type": "address"
        },
        {
          "indexed": true,
          "internalType": "uint256",
          "name": "sku",
          "type": "uint256"
        },
        {
          "indexed": false,
          "internalType": "bytes",
          "name": "publicURI",
          "type": "bytes"
        },
        {
          "indexed": false,
          "internalType": "bytes32",
          "name": "hashPrivateURI",
          "type": "bytes32"
        }
      ],
      "name": "MetadataSet",
      "type": "event"
    },
    {
      "anonymous": false,
      "inputs": [
        {
          "indexed": true,
          "internalType": "address",
          "name": "collection",
          "type": "address"
        },
        {
          "indexed": true,
          "internalType": "uint256",
          "name": "sku",
          "type": "uint256"
        },
        {
          "indexed": true,
          "internalType": "uint256",
          "name": "tokenId",
          "type": "uint256"
        },
        {
          "indexed": false,
          "internalType": "address",
          "name": "paymentToken",
          "type": "address"
        },
        {
          "indexed": false,
          "internalType": "uint256",
          "name": "price",
          "type": "uint256"
        },
        {
          "indexed": false,
          "internalType": "address",
          "name": "buyer",
          "type": "address"
        }
      ],
      "name": "NftBought",
      "type": "event"
    },
    {
      "anonymous": false,
      "inputs": [
        {
          "indexed": true,
          "internalType": "address",
          "name": "collection",
          "type": "address"
        },
        {
          "indexed": false,
          "internalType": "address",
          "name": "paymentToken",
          "type": "address"
        }
      ],
      "name": "PaymentTokenAdded",
      "type": "event"
    },
    {
      "anonymous": false,
      "inputs": [
        {
          "indexed": true,
          "internalType": "address",
          "name": "collection",
          "type": "address"
        },
        {
          "indexed": false,
          "internalType": "address",
          "name": "paymentToken",
          "type": "address"
        }
      ],
      "name": "PaymentTokenRemoved",
      "type": "event"
    },
    {
      "anonymous": false,
      "inputs": [
        {
          "indexed": true,
          "internalType": "address",
          "name": "collection",
          "type": "address"
        },
        {
          "indexed": true,
          "internalType": "uint256",
          "name": "sku",
          "type": "uint256"
        },
        {
          "indexed": false,
          "internalType": "address",
          "name": "paymentToken",
          "type": "address"
        },
        {
          "indexed": false,
          "internalType": "uint256",
          "name": "price",
          "type": "uint256"
        }
      ],
      "name": "PriceSet",
      "type": "event"
    },
    {
      "anonymous": false,
      "inputs": [
        {
          "indexed": true,
          "internalType": "address",
          "name": "implementation",
          "type": "address"
        }
      ],
      "name": "Upgraded",
      "type": "event"
    },
    {
      "inputs": [],
      "name": "accessManager",
      "outputs": [
        {
          "internalType": "contract IAccessManager",
          "name": "",
          "type": "address"
        }
      ],
      "stateMutability": "view",
      "type": "function"
    },
    {
      "inputs": [
        {
          "internalType": "address[]",
          "name": "_collections",
          "type": "address[]"
        }
      ],
      "name": "addCollections",
      "outputs": [],
      "stateMutability": "nonpayable",
      "type": "function"
    },
    {
      "inputs": [
        {
          "internalType": "address",
          "name": "_collection",
          "type": "address"
        },
        {
          "internalType": "address[]",
          "name": "_tokens",
          "type": "address[]"
        }
      ],
      "name": "addPaymentTokens",
      "outputs": [],
      "stateMutability": "nonpayable",
      "type": "function"
    },
    {
      "inputs": [
        {
          "internalType": "address",
          "name": "_paymentToken",
          "type": "address"
        },
        {
          "internalType": "address",
          "name": "_collection",
          "type": "address"
        },
        {
          "internalType": "uint256",
          "name": "_sku",
          "type": "uint256"
        }
      ],
      "name": "buyNft",
      "outputs": [],
      "stateMutability": "nonpayable",
      "type": "function"
    },
    {
      "inputs": [
        {
          "internalType": "address",
          "name": "_collection",
          "type": "address"
        },
        {
          "internalType": "uint256[]",
          "name": "_skuIDs",
          "type": "uint256[]"
        }
      ],
      "name": "getAvailableStatus",
      "outputs": [
        {
          "internalType": "bool[]",
          "name": "availableStatus",
          "type": "bool[]"
        }
      ],
      "stateMutability": "view",
      "type": "function"
    },
    {
      "inputs": [
        {
          "internalType": "address",
          "name": "_collection",
          "type": "address"
        },
        {
          "internalType": "uint256[]",
          "name": "_skuIDs",
          "type": "uint256[]"
        }
      ],
      "name": "getNftsMetadata",
      "outputs": [
        {
          "components": [
            {
              "internalType": "bytes",
              "name": "publicURI",
              "type": "bytes"
            },
            {
              "internalType": "bytes32",
              "name": "hashPrivateURI",
              "type": "bytes32"
            }
          ],
          "internalType": "struct IBluumNft.Metadata[]",
          "name": "_metadata",
          "type": "tuple[]"
        }
      ],
      "stateMutability": "view",
      "type": "function"
    },
    {
      "inputs": [
        {
          "internalType": "address",
          "name": "_collection",
          "type": "address"
        },
        {
          "internalType": "uint256",
          "name": "_sku",
          "type": "uint256"
        },
        {
          "internalType": "address[]",
          "name": "_tokens",
          "type": "address[]"
        }
      ],
      "name": "getPaymentTokenPrice",
      "outputs": [
        {
          "internalType": "uint256[]",
          "name": "_prices",
          "type": "uint256[]"
        },
        {
          "internalType": "uint256[]",
          "name": "_decimals",
          "type": "uint256[]"
        }
      ],
      "stateMutability": "view",
      "type": "function"
    },
    {
      "inputs": [
        {
          "internalType": "address",
          "name": "_collection",
          "type": "address"
        }
      ],
      "name": "getPaymentTokens",
      "outputs": [
        {
          "internalType": "address[]",
          "name": "_tokens",
          "type": "address[]"
        }
      ],
      "stateMutability": "view",
      "type": "function"
    },
    {
      "inputs": [
        {
          "internalType": "address",
          "name": "_teamWallet",
          "type": "address"
        },
        {
          "internalType": "contract IAccessManager",
          "name": "_accessManager",
          "type": "address"
        }
      ],
      "name": "initialize",
      "outputs": [],
      "stateMutability": "nonpayable",
      "type": "function"
    },
    {
      "inputs": [],
      "name": "proxiableUUID",
      "outputs": [
        {
          "internalType": "bytes32",
          "name": "",
          "type": "bytes32"
        }
      ],
      "stateMutability": "view",
      "type": "function"
    },
    {
      "inputs": [
        {
          "internalType": "address[]",
          "name": "_collections",
          "type": "address[]"
        }
      ],
      "name": "removeCollections",
      "outputs": [],
      "stateMutability": "nonpayable",
      "type": "function"
    },
    {
      "inputs": [
        {
          "internalType": "address",
          "name": "_collection",
          "type": "address"
        },
        {
          "internalType": "address[]",
          "name": "_tokens",
          "type": "address[]"
        }
      ],
      "name": "removePaymentTokens",
      "outputs": [],
      "stateMutability": "nonpayable",
      "type": "function"
    },
    {
      "inputs": [
        {
          "internalType": "address",
          "name": "_collection",
          "type": "address"
        },
        {
          "internalType": "uint256[]",
          "name": "_skuIDs",
          "type": "uint256[]"
        },
        {
          "internalType": "bool[]",
          "name": "_isAvailable",
          "type": "bool[]"
        }
      ],
      "name": "setAvailableStatus",
      "outputs": [],
      "stateMutability": "nonpayable",
      "type": "function"
    },
    {
      "inputs": [
        {
          "internalType": "address[]",
          "name": "_tokens",
          "type": "address[]"
        },
        {
          "internalType": "uint256[]",
          "name": "_decimals",
          "type": "uint256[]"
        }
      ],
      "name": "setDecimals",
      "outputs": [],
      "stateMutability": "nonpayable",
      "type": "function"
    },
    {
      "inputs": [
        {
          "internalType": "address",
          "name": "_collection",
          "type": "address"
        },
        {
          "internalType": "uint256[]",
          "name": "_skuIDs",
          "type": "uint256[]"
        },
        {
          "components": [
            {
              "internalType": "bytes",
              "name": "publicURI",
              "type": "bytes"
            },
            {
              "internalType": "bytes32",
              "name": "hashPrivateURI",
              "type": "bytes32"
            }
          ],
          "internalType": "struct IBluumNft.Metadata[]",
          "name": "_metadata",
          "type": "tuple[]"
        }
      ],
      "name": "setMetadata",
      "outputs": [],
      "stateMutability": "nonpayable",
      "type": "function"
    },
    {
      "inputs": [
        {
          "internalType": "address",
          "name": "_collection",
          "type": "address"
        },
        {
          "components": [
            {
              "internalType": "address[]",
              "name": "paymentTokens",
              "type": "address[]"
            },
            {
              "internalType": "uint256[]",
              "name": "prices",
              "type": "uint256[]"
            }
          ],
          "internalType": "struct IDex.Price[]",
          "name": "_prices",
          "type": "tuple[]"
        },
        {
          "internalType": "uint256[]",
          "name": "_skuIDs",
          "type": "uint256[]"
        }
      ],
      "name": "setPrices",
      "outputs": [],
      "stateMutability": "nonpayable",
      "type": "function"
    },
    {
      "inputs": [
        {
          "internalType": "address",
          "name": "newImplementation",
          "type": "address"
        }
      ],
      "name": "upgradeTo",
      "outputs": [],
      "stateMutability": "nonpayable",
      "type": "function"
    },
    {
      "inputs": [
        {
          "internalType": "address",
          "name": "newImplementation",
          "type": "address"
        },
        {
          "internalType": "bytes",
          "name": "data",
          "type": "bytes"
        }
      ],
      "name": "upgradeToAndCall",
      "outputs": [],
      "stateMutability": "payable",
      "type": "function"
    }
  ],
  "bytecode": "0x60a06040523073ffffffffffffffffffffffffffffffffffffffff1660809073ffffffffffffffffffffffffffffffffffffffff1681525034801561004357600080fd5b506080516157b46200007c60003960008181610a4901528181610ad701528181610ff601528181611084015261113401526157b46000f3fe6080604052600436106101095760003560e01c80637eb69b4311610095578063a0a5318911610064578063a0a5318914610369578063aea5767214610392578063d80d41fa146103bb578063f2c1e73f146103e4578063fdcb60681461040d57610109565b80637eb69b431461029c57806399e61179146102c55780639ac85471146103035780639dbf1b551461034057610109565b806349919e62116100dc57806349919e62146101c65780634f1ef286146101ef57806352d1902d1461020b5780635701178b146102365780635af2ca1f1461025f57610109565b8063145b37061461010e578063313cbaaa146101375780633659cfe614610174578063485cc9551461019d575b600080fd5b34801561011a57600080fd5b506101356004803603810190610130919061374b565b610438565b005b34801561014357600080fd5b5061015e600480360381019061015991906137e0565b610934565b60405161016b919061390a565b60405180910390f35b34801561018057600080fd5b5061019b6004803603810190610196919061392c565b610a47565b005b3480156101a957600080fd5b506101c460048036038101906101bf9190613997565b610bcf565b005b3480156101d257600080fd5b506101ed60048036038101906101e89190613a2d565b610e37565b005b61020960048036038101906102049190613bbb565b610ff4565b005b34801561021757600080fd5b50610220611130565b60405161022d9190613c30565b60405180910390f35b34801561024257600080fd5b5061025d60048036038101906102589190613ca1565b6111e9565b005b34801561026b57600080fd5b50610286600480360381019061028191906137e0565b611446565b6040516102939190613ec3565b60405180910390f35b3480156102a857600080fd5b506102c360048036038101906102be9190613f3b565b6115f6565b005b3480156102d157600080fd5b506102ec60048036038101906102e79190614006565b61187f565b6040516102fa929190614138565b60405180910390f35b34801561030f57600080fd5b5061032a6004803603810190610325919061392c565b611aa1565b604051610337919061422d565b60405180910390f35b34801561034c57600080fd5b506103676004803603810190610362919061424f565b611af1565b005b34801561037557600080fd5b50610390600480360381019061038b91906142af565b611d03565b005b34801561039e57600080fd5b506103b960048036038101906103b49190613a2d565b611f79565b005b3480156103c757600080fd5b506103e260048036038101906103dd9190614330565b612136565b005b3480156103f057600080fd5b5061040b6004803603810190610406919061424f565b6126f1565b005b34801561041957600080fd5b50610422612903565b60405161042f91906143e2565b60405180910390f35b609760009054906101000a900473ffffffffffffffffffffffffffffffffffffffff1673ffffffffffffffffffffffffffffffffffffffff166391d148547fa49807205ce4d355092ef5a8a18f56e8913cf4a201fbe287825b095693c21775336040518363ffffffff1660e01b81526004016104b592919061440c565b602060405180830381865afa1580156104d2573d6000803e3d6000fd5b505050506040513d601f19601f820116820180604052508101906104f69190614461565b61053757336040517fa3a27afc00000000000000000000000000000000000000000000000000000000815260040161052e919061448e565b60405180910390fd5b60005b8282905081101561092c5760005b85858381811061055b5761055a6144a9565b5b905060200281019061056d91906144e7565b806000019061057c919061450f565b905081101561091a57600086868481811061059a576105996144a9565b5b90506020028101906105ac91906144e7565b80600001906105bb919061450f565b838181106105cc576105cb6144a9565b5b90506020020160208101906105e1919061392c565b905061063481609960008b73ffffffffffffffffffffffffffffffffffffffff1673ffffffffffffffffffffffffffffffffffffffff16815260200190815260200160002061292990919063ffffffff16565b6106d95761068981609960008b73ffffffffffffffffffffffffffffffffffffffff1673ffffffffffffffffffffffffffffffffffffffff16815260200190815260200160002061295990919063ffffffff16565b508773ffffffffffffffffffffffffffffffffffffffff167fb96e353e41685d2c0c71657628655373417f3980dc2e6244ef705db758401d53826040516106d0919061448e565b60405180910390a25b6000609a60008373ffffffffffffffffffffffffffffffffffffffff1673ffffffffffffffffffffffffffffffffffffffff168152602001908152602001600020540361075d57806040517f0fb3378b000000000000000000000000000000000000000000000000000000008152600401610754919061448e565b60405180910390fd5b8686848181106107705761076f6144a9565b5b905060200281019061078291906144e7565b80602001906107919190614572565b838181106107a2576107a16144a9565b5b90506020020135609860008a73ffffffffffffffffffffffffffffffffffffffff1673ffffffffffffffffffffffffffffffffffffffff16815260200190815260200160002060008787878181106107fd576107fc6144a9565b5b90506020020135815260200190815260200160002060008373ffffffffffffffffffffffffffffffffffffffff1673ffffffffffffffffffffffffffffffffffffffff16815260200190815260200160002081905550848484818110610866576108656144a9565b5b905060200201358873ffffffffffffffffffffffffffffffffffffffff167f96b6204b52ab5c648f91fa54360fc3f01dcfd71eb8d16fb26347d9ad85b0d62e838a8a888181106108b9576108b86144a9565b5b90506020028101906108cb91906144e7565b80602001906108da9190614572565b878181106108eb576108ea6144a9565b5b905060200201356040516109009291906145e4565b60405180910390a350806109139061463c565b9050610548565b50806109259061463c565b905061053a565b505050505050565b60608282905067ffffffffffffffff81111561095357610952613a90565b5b6040519080825280602002602001820160405280156109815781602001602082028036833780820191505090505b50905060005b83839050811015610a3f57609c60008673ffffffffffffffffffffffffffffffffffffffff1673ffffffffffffffffffffffffffffffffffffffff16815260200190815260200160002060008585848181106109e6576109e56144a9565b5b90506020020135815260200190815260200160002060009054906101000a900460ff16828281518110610a1c57610a1b6144a9565b5b60200260200101901515908115158152505080610a389061463c565b9050610987565b509392505050565b7f000000000000000000000000000000000000000000000000000000000000000073ffffffffffffffffffffffffffffffffffffffff163073ffffffffffffffffffffffffffffffffffffffff1603610ad5576040517f08c379a0000000000000000000000000000000000000000000000000000000008152600401610acc90614707565b60405180910390fd5b7f000000000000000000000000000000000000000000000000000000000000000073ffffffffffffffffffffffffffffffffffffffff16610b14612989565b73ffffffffffffffffffffffffffffffffffffffff1614610b6a576040517f08c379a0000000000000000000000000000000000000000000000000000000008152600401610b6190614799565b60405180910390fd5b610b73816129e0565b610bcc81600067ffffffffffffffff811115610b9257610b91613a90565b5b6040519080825280601f01601f191660200182016040528015610bc45781602001600182028036833780820191505090505b506000612ae2565b50565b60008060019054906101000a900460ff16159050808015610c005750600160008054906101000a900460ff1660ff16105b80610c2d5750610c0f30612c50565b158015610c2c5750600160008054906101000a900460ff1660ff16145b5b610c6c576040517f08c379a0000000000000000000000000000000000000000000000000000000008152600401610c639061482b565b60405180910390fd5b60016000806101000a81548160ff021916908360ff1602179055508015610ca9576001600060016101000a81548160ff0219169083151502179055505b600073ffffffffffffffffffffffffffffffffffffffff168373ffffffffffffffffffffffffffffffffffffffff161480610d105750600073ffffffffffffffffffffffffffffffffffffffff168273ffffffffffffffffffffffffffffffffffffffff16145b15610d47576040517fd92e233d00000000000000000000000000000000000000000000000000000000815260040160405180910390fd5b610d4f612c73565b610d57612ccc565b82609f60006101000a81548173ffffffffffffffffffffffffffffffffffffffff021916908373ffffffffffffffffffffffffffffffffffffffff16021790555081609760006101000a81548173ffffffffffffffffffffffffffffffffffffffff021916908373ffffffffffffffffffffffffffffffffffffffff1602179055508015610e325760008060016101000a81548160ff0219169083151502179055507f7f26b83ff96e1f2b6a682f133852f6798a09c465da95921460cefb38474024986001604051610e299190614893565b60405180910390a15b505050565b609760009054906101000a900473ffffffffffffffffffffffffffffffffffffffff1673ffffffffffffffffffffffffffffffffffffffff166391d148547fa49807205ce4d355092ef5a8a18f56e8913cf4a201fbe287825b095693c21775336040518363ffffffff1660e01b8152600401610eb492919061440c565b602060405180830381865afa158015610ed1573d6000803e3d6000fd5b505050506040513d601f19601f82011682018060405250810190610ef59190614461565b610f3657336040517fa3a27afc000000000000000000000000000000000000000000000000000000008152600401610f2d919061448e565b60405180910390fd5b60005b82829050811015610fef57610f7f838383818110610f5a57610f596144a9565b5b9050602002016020810190610f6f919061392c565b609d61295990919063ffffffff16565b507f7701426aaa4c0c88a30924a7aba88dce66b18c4020b54e4e19c9e0eb0abc2992838383818110610fb457610fb36144a9565b5b9050602002016020810190610fc9919061392c565b604051610fd6919061448e565b60405180910390a180610fe89061463c565b9050610f39565b505050565b7f000000000000000000000000000000000000000000000000000000000000000073ffffffffffffffffffffffffffffffffffffffff163073ffffffffffffffffffffffffffffffffffffffff1603611082576040517f08c379a000000000000000000000000000000000000000000000000000000000815260040161107990614707565b60405180910390fd5b7f000000000000000000000000000000000000000000000000000000000000000073ffffffffffffffffffffffffffffffffffffffff166110c1612989565b73ffffffffffffffffffffffffffffffffffffffff1614611117576040517f08c379a000000000000000000000000000000000000000000000000000000000815260040161110e90614799565b60405180910390fd5b611120826129e0565b61112c82826001612ae2565b5050565b60007f000000000000000000000000000000000000000000000000000000000000000073ffffffffffffffffffffffffffffffffffffffff163073ffffffffffffffffffffffffffffffffffffffff16146111c0576040517f08c379a00000000000000000000000000000000000000000000000000000000081526004016111b790614920565b60405180910390fd5b7f360894a13ba1a3210667c828492db98dca3e2076cc3735a920a3ca505d382bbc60001b905090565b609760009054906101000a900473ffffffffffffffffffffffffffffffffffffffff1673ffffffffffffffffffffffffffffffffffffffff166391d148547fa49807205ce4d355092ef5a8a18f56e8913cf4a201fbe287825b095693c21775336040518363ffffffff1660e01b815260040161126692919061440c565b602060405180830381865afa158015611283573d6000803e3d6000fd5b505050506040513d601f19601f820116820180604052508101906112a79190614461565b6112e857336040517fa3a27afc0000000000000000000000000000000000000000000000000000000081526004016112df919061448e565b60405180910390fd5b60005b8484905081101561143e57828282818110611309576113086144a9565b5b905060200201602081019061131e9190614955565b609c60008873ffffffffffffffffffffffffffffffffffffffff1673ffffffffffffffffffffffffffffffffffffffff1681526020019081526020016000206000878785818110611372576113716144a9565b5b90506020020135815260200190815260200160002060006101000a81548160ff0219169083151502179055508484828181106113b1576113b06144a9565b5b905060200201358673ffffffffffffffffffffffffffffffffffffffff167f13d6483d61afbc47f7264958bf5fb776b92bc6104e412c04e56723f098252b64858585818110611403576114026144a9565b5b90506020020160208101906114189190614955565b6040516114259190614991565b60405180910390a3806114379061463c565b90506112eb565b505050505050565b60608282905067ffffffffffffffff81111561146557611464613a90565b5b60405190808252806020026020018201604052801561149e57816020015b61148b613601565b8152602001906001900390816114835790505b50905060005b838390508110156115ee57609b60008673ffffffffffffffffffffffffffffffffffffffff1673ffffffffffffffffffffffffffffffffffffffff1681526020019081526020016000206000858584818110611503576115026144a9565b5b905060200201358152602001908152602001600020604051806040016040529081600082018054611533906149db565b80601f016020809104026020016040519081016040528092919081815260200182805461155f906149db565b80156115ac5780601f10611581576101008083540402835291602001916115ac565b820191906000526020600020905b81548152906001019060200180831161158f57829003601f168201915b505050505081526020016001820154815250508282815181106115d2576115d16144a9565b5b6020026020010181905250806115e79061463c565b90506114a4565b509392505050565b609760009054906101000a900473ffffffffffffffffffffffffffffffffffffffff1673ffffffffffffffffffffffffffffffffffffffff166391d148547fa49807205ce4d355092ef5a8a18f56e8913cf4a201fbe287825b095693c21775336040518363ffffffff1660e01b815260040161167392919061440c565b602060405180830381865afa158015611690573d6000803e3d6000fd5b505050506040513d601f19601f820116820180604052508101906116b49190614461565b6116f557336040517fa3a27afc0000000000000000000000000000000000000000000000000000000081526004016116ec919061448e565b60405180910390fd5b60005b8484905081101561187757828282818110611716576117156144a9565b5b90506020028101906117289190614a0c565b609b60008873ffffffffffffffffffffffffffffffffffffffff1673ffffffffffffffffffffffffffffffffffffffff168152602001908152602001600020600087878581811061177c5761177b6144a9565b5b905060200201358152602001908152602001600020818161179d9190614e3a565b9050508484828181106117b3576117b26144a9565b5b905060200201358673ffffffffffffffffffffffffffffffffffffffff167f185c5fe6e8687dee35a0064092e584b7ed4307bf26c833cb2e736ce46766e939858585818110611805576118046144a9565b5b90506020028101906118179190614a0c565b80600001906118269190614a34565b878787818110611839576118386144a9565b5b905060200281019061184b9190614a0c565b6020013560405161185e93929190614e86565b60405180910390a3806118709061463c565b90506116f8565b505050505050565b6060808383905067ffffffffffffffff81111561189f5761189e613a90565b5b6040519080825280602002602001820160405280156118cd5781602001602082028036833780820191505090505b5091508383905067ffffffffffffffff8111156118ed576118ec613a90565b5b60405190808252806020026020018201604052801561191b5781602001602082028036833780820191505090505b50905060005b84849050811015611a9757609860008873ffffffffffffffffffffffffffffffffffffffff1673ffffffffffffffffffffffffffffffffffffffff16815260200190815260200160002060008781526020019081526020016000206000868684818110611991576119906144a9565b5b90506020020160208101906119a6919061392c565b73ffffffffffffffffffffffffffffffffffffffff1673ffffffffffffffffffffffffffffffffffffffff168152602001908152602001600020548382815181106119f4576119f36144a9565b5b602002602001018181525050609a6000868684818110611a1757611a166144a9565b5b9050602002016020810190611a2c919061392c565b73ffffffffffffffffffffffffffffffffffffffff1673ffffffffffffffffffffffffffffffffffffffff16815260200190815260200160002054828281518110611a7a57611a796144a9565b5b60200260200101818152505080611a909061463c565b9050611921565b5094509492505050565b6060611aea609960008473ffffffffffffffffffffffffffffffffffffffff1673ffffffffffffffffffffffffffffffffffffffff168152602001908152602001600020612d1d565b9050919050565b609760009054906101000a900473ffffffffffffffffffffffffffffffffffffffff1673ffffffffffffffffffffffffffffffffffffffff166391d148547fa49807205ce4d355092ef5a8a18f56e8913cf4a201fbe287825b095693c21775336040518363ffffffff1660e01b8152600401611b6e92919061440c565b602060405180830381865afa158015611b8b573d6000803e3d6000fd5b505050506040513d601f19601f82011682018060405250810190611baf9190614461565b611bf057336040517fa3a27afc000000000000000000000000000000000000000000000000000000008152600401611be7919061448e565b60405180910390fd5b60005b82829050811015611cfd57611c76838383818110611c1457611c136144a9565b5b9050602002016020810190611c29919061392c565b609960008773ffffffffffffffffffffffffffffffffffffffff1673ffffffffffffffffffffffffffffffffffffffff16815260200190815260200160002061295990919063ffffffff16565b508373ffffffffffffffffffffffffffffffffffffffff167fb96e353e41685d2c0c71657628655373417f3980dc2e6244ef705db758401d53848484818110611cc257611cc16144a9565b5b9050602002016020810190611cd7919061392c565b604051611ce4919061448e565b60405180910390a280611cf69061463c565b9050611bf3565b50505050565b609760009054906101000a900473ffffffffffffffffffffffffffffffffffffffff1673ffffffffffffffffffffffffffffffffffffffff166391d148547fa49807205ce4d355092ef5a8a18f56e8913cf4a201fbe287825b095693c21775336040518363ffffffff1660e01b8152600401611d8092919061440c565b602060405180830381865afa158015611d9d573d6000803e3d6000fd5b505050506040513d601f19601f82011682018060405250810190611dc19190614461565b611e0257336040517fa3a27afc000000000000000000000000000000000000000000000000000000008152600401611df9919061448e565b60405180910390fd5b818190508484905014611e41576040517f6d81bb3000000000000000000000000000000000000000000000000000000000815260040160405180910390fd5b60005b84849050811015611f7257828282818110611e6257611e616144a9565b5b90506020020135609a6000878785818110611e8057611e7f6144a9565b5b9050602002016020810190611e95919061392c565b73ffffffffffffffffffffffffffffffffffffffff1673ffffffffffffffffffffffffffffffffffffffff16815260200190815260200160002081905550848482818110611ee657611ee56144a9565b5b9050602002016020810190611efb919061392c565b73ffffffffffffffffffffffffffffffffffffffff167f82aaa85cf0987127fa33358694a17622d8e26048a789de8f02813f01655dd357848484818110611f4557611f446144a9565b5b90506020020135604051611f599190614eb8565b60405180910390a280611f6b9061463c565b9050611e44565b5050505050565b609760009054906101000a900473ffffffffffffffffffffffffffffffffffffffff1673ffffffffffffffffffffffffffffffffffffffff166391d148547fa49807205ce4d355092ef5a8a18f56e8913cf4a201fbe287825b095693c21775336040518363ffffffff1660e01b8152600401611ff692919061440c565b602060405180830381865afa158015612013573d6000803e3d6000fd5b505050506040513d601f19601f820116820180604052508101906120379190614461565b61207857336040517fa3a27afc00000000000000000000000000000000000000000000000000000000815260040161206f919061448e565b60405180910390fd5b60005b82829050811015612131576120c183838381811061209c5761209b6144a9565b5b90506020020160208101906120b1919061392c565b609d612d3e90919063ffffffff16565b507fa0691bd707b2f65c33c8343d61c274df72c6b5007937dcfbc31aa5a0d0f6fe3c8383838181106120f6576120f56144a9565b5b905060200201602081019061210b919061392c565b604051612118919061448e565b60405180910390a18061212a9061463c565b905061207b565b505050565b61213e612d6e565b61215282609d61292990919063ffffffff16565b61219357816040517f4219aac900000000000000000000000000000000000000000000000000000000815260040161218a919061448e565b60405180910390fd5b6121e483609960008573ffffffffffffffffffffffffffffffffffffffff1673ffffffffffffffffffffffffffffffffffffffff16815260200190815260200160002061292990919063ffffffff16565b61222557826040517f449eec6100000000000000000000000000000000000000000000000000000000815260040161221c919061448e565b60405180910390fd5b6000609860008473ffffffffffffffffffffffffffffffffffffffff1673ffffffffffffffffffffffffffffffffffffffff168152602001908152602001600020600083815260200190815260200160002060008573ffffffffffffffffffffffffffffffffffffffff1673ffffffffffffffffffffffffffffffffffffffff168152602001908152602001600020549050600081036122f1576040517f23a3620900000000000000000000000000000000000000000000000000000000815260040160405180910390fd5b609c60008473ffffffffffffffffffffffffffffffffffffffff1673ffffffffffffffffffffffffffffffffffffffff168152602001908152602001600020600083815260200190815260200160002060009054906101000a900460ff1661239057816040517f7bce8d340000000000000000000000000000000000000000000000000000000081526004016123879190614eb8565b60405180910390fd5b6000609c60008573ffffffffffffffffffffffffffffffffffffffff1673ffffffffffffffffffffffffffffffffffffffff168152602001908152602001600020600084815260200190815260200160002060006101000a81548160ff02191690831515021790555060008490506000609a60008773ffffffffffffffffffffffffffffffffffffffff1673ffffffffffffffffffffffffffffffffffffffff16815260200190815260200160002054600a61244c9190615006565b836124579190615051565b90506124a833609f60009054906101000a900473ffffffffffffffffffffffffffffffffffffffff16838573ffffffffffffffffffffffffffffffffffffffff16612dbd909392919063ffffffff16565b600085905060008173ffffffffffffffffffffffffffffffffffffffff1663b61b4d0760405180606001604052803373ffffffffffffffffffffffffffffffffffffffff168152602001609b60008c73ffffffffffffffffffffffffffffffffffffffff1673ffffffffffffffffffffffffffffffffffffffff16815260200190815260200160002060008b81526020019081526020016000206000018054612550906149db565b80601f016020809104026020016040519081016040528092919081815260200182805461257c906149db565b80156125c95780601f1061259e576101008083540402835291602001916125c9565b820191906000526020600020905b8154815290600101906020018083116125ac57829003601f168201915b50505050508152602001609b60008c73ffffffffffffffffffffffffffffffffffffffff1673ffffffffffffffffffffffffffffffffffffffff16815260200190815260200160002060008b8152602001908152602001600020600101548152506040518263ffffffff1660e01b815260040161264691906150e3565b6020604051808303816000875af1158015612665573d6000803e3d6000fd5b505050506040513d601f19601f82011682018060405250810190612689919061511a565b905080868873ffffffffffffffffffffffffffffffffffffffff167f81131355c6f3da16bb6fb47220fa627b311992a58cce04ee6804d6e868efcce78b87336040516126d793929190615147565b60405180910390a450505050506126ec612e46565b505050565b609760009054906101000a900473ffffffffffffffffffffffffffffffffffffffff1673ffffffffffffffffffffffffffffffffffffffff166391d148547fa49807205ce4d355092ef5a8a18f56e8913cf4a201fbe287825b095693c21775336040518363ffffffff1660e01b815260040161276e92919061440c565b602060405180830381865afa15801561278b573d6000803e3d6000fd5b505050506040513d601f19601f820116820180604052508101906127af9190614461565b6127f057336040517fa3a27afc0000000000000000000000000000000000000000000000000000000081526004016127e7919061448e565b60405180910390fd5b60005b828290508110156128fd57612876838383818110612814576128136144a9565b5b9050602002016020810190612829919061392c565b609960008773ffffffffffffffffffffffffffffffffffffffff1673ffffffffffffffffffffffffffffffffffffffff168152602001908152602001600020612d3e90919063ffffffff16565b508373ffffffffffffffffffffffffffffffffffffffff167ff26a45171a2cee53dc4409f66880ab4bd14f52dc6412965780895ca64abfa9238484848181106128c2576128c16144a9565b5b90506020020160208101906128d7919061392c565b6040516128e4919061448e565b60405180910390a2806128f69061463c565b90506127f3565b50505050565b609760009054906101000a900473ffffffffffffffffffffffffffffffffffffffff1681565b6000612951836000018373ffffffffffffffffffffffffffffffffffffffff1660001b612e50565b905092915050565b6000612981836000018373ffffffffffffffffffffffffffffffffffffffff1660001b612e73565b905092915050565b60006129b77f360894a13ba1a3210667c828492db98dca3e2076cc3735a920a3ca505d382bbc60001b612ee3565b60000160009054906101000a900473ffffffffffffffffffffffffffffffffffffffff16905090565b609760009054906101000a900473ffffffffffffffffffffffffffffffffffffffff1673ffffffffffffffffffffffffffffffffffffffff166391d148547fa49807205ce4d355092ef5a8a18f56e8913cf4a201fbe287825b095693c21775336040518363ffffffff1660e01b8152600401612a5d92919061440c565b602060405180830381865afa158015612a7a573d6000803e3d6000fd5b505050506040513d601f19601f82011682018060405250810190612a9e9190614461565b612adf57336040517fa3a27afc000000000000000000000000000000000000000000000000000000008152600401612ad6919061448e565b60405180910390fd5b50565b612b0e7f4910fdfa16fed3260ed0e7147f7cc6da11a60208b5b9406d12a635614ffd914360001b612eed565b60000160009054906101000a900460ff1615612b3257612b2d83612ef7565b612c4b565b8273ffffffffffffffffffffffffffffffffffffffff166352d1902d6040518163ffffffff1660e01b8152600401602060405180830381865afa925050508015612b9a57506040513d601f19601f82011682018060405250810190612b979190615193565b60015b612bd9576040517f08c379a0000000000000000000000000000000000000000000000000000000008152600401612bd090615232565b60405180910390fd5b7f360894a13ba1a3210667c828492db98dca3e2076cc3735a920a3ca505d382bbc60001b8114612c3e576040517f08c379a0000000000000000000000000000000000000000000000000000000008152600401612c35906152c4565b60405180910390fd5b50612c4a838383612fb0565b5b505050565b6000808273ffffffffffffffffffffffffffffffffffffffff163b119050919050565b600060019054906101000a900460ff16612cc2576040517f08c379a0000000000000000000000000000000000000000000000000000000008152600401612cb990615356565b60405180910390fd5b612cca612fdc565b565b600060019054906101000a900460ff16612d1b576040517f08c379a0000000000000000000000000000000000000000000000000000000008152600401612d1290615356565b60405180910390fd5b565b60606000612d2d83600001613035565b905060608190508092505050919050565b6000612d66836000018373ffffffffffffffffffffffffffffffffffffffff1660001b613091565b905092915050565b600260655403612db3576040517f08c379a0000000000000000000000000000000000000000000000000000000008152600401612daa906153c2565b60405180910390fd5b6002606581905550565b612e40846323b872dd60e01b858585604051602401612dde939291906153e2565b604051602081830303815290604052907bffffffffffffffffffffffffffffffffffffffffffffffffffffffff19166020820180517bffffffffffffffffffffffffffffffffffffffffffffffffffffffff83818316178352505050506131a5565b50505050565b6001606581905550565b600080836001016000848152602001908152602001600020541415905092915050565b6000612e7f8383612e50565b612ed8578260000182908060018154018082558091505060019003906000526020600020016000909190919091505582600001805490508360010160008481526020019081526020016000208190555060019050612edd565b600090505b92915050565b6000819050919050565b6000819050919050565b612f0081612c50565b612f3f576040517f08c379a0000000000000000000000000000000000000000000000000000000008152600401612f369061548b565b60405180910390fd5b80612f6c7f360894a13ba1a3210667c828492db98dca3e2076cc3735a920a3ca505d382bbc60001b612ee3565b60000160006101000a81548173ffffffffffffffffffffffffffffffffffffffff021916908373ffffffffffffffffffffffffffffffffffffffff16021790555050565b612fb98361326d565b600082511180612fc65750805b15612fd757612fd583836132bc565b505b505050565b600060019054906101000a900460ff1661302b576040517f08c379a000000000000000000000000000000000000000000000000000000000815260040161302290615356565b60405180910390fd5b6001606581905550565b60608160000180548060200260200160405190810160405280929190818152602001828054801561308557602002820191906000526020600020905b815481526020019060010190808311613071575b50505050509050919050565b600080836001016000848152602001908152602001600020549050600081146131995760006001826130c391906154ab565b90506000600186600001805490506130db91906154ab565b905081811461314a5760008660000182815481106130fc576130fb6144a9565b5b90600052602060002001549050808760000184815481106131205761311f6144a9565b5b90600052602060002001819055508387600101600083815260200190815260200160002081905550505b8560000180548061315e5761315d6154df565b5b60019003818190600052602060002001600090559055856001016000868152602001908152602001600020600090556001935050505061319f565b60009150505b92915050565b6000613207826040518060400160405280602081526020017f5361666545524332303a206c6f772d6c6576656c2063616c6c206661696c65648152508573ffffffffffffffffffffffffffffffffffffffff166132e99092919063ffffffff16565b90506000815114806132295750808060200190518101906132289190614461565b5b613268576040517f08c379a000000000000000000000000000000000000000000000000000000000815260040161325f90615580565b60405180910390fd5b505050565b61327681612ef7565b8073ffffffffffffffffffffffffffffffffffffffff167fbc7cd75a20ee27fd9adebab32041f755214dbc6bffa90cc0225b39da2e5c2d3b60405160405180910390a250565b60606132e1838360405180606001604052806027815260200161575860279139613301565b905092915050565b60606132f88484600085613387565b90509392505050565b60606000808573ffffffffffffffffffffffffffffffffffffffff168560405161332b91906155dc565b600060405180830381855af49150503d8060008114613366576040519150601f19603f3d011682016040523d82523d6000602084013e61336b565b606091505b509150915061337c86838387613454565b925050509392505050565b6060824710156133cc576040517f08c379a00000000000000000000000000000000000000000000000000000000081526004016133c390615665565b60405180910390fd5b6000808673ffffffffffffffffffffffffffffffffffffffff1685876040516133f591906155dc565b60006040518083038185875af1925050503d8060008114613432576040519150601f19603f3d011682016040523d82523d6000602084013e613437565b606091505b5091509150613448878383876134c9565b92505050949350505050565b606083156134b65760008351036134ae5761346e85612c50565b6134ad576040517f08c379a00000000000000000000000000000000000000000000000000000000081526004016134a4906156d1565b60405180910390fd5b5b8290506134c1565b6134c0838361353e565b5b949350505050565b6060831561352b576000835103613523576134e38561358e565b613522576040517f08c379a0000000000000000000000000000000000000000000000000000000008152600401613519906156d1565b60405180910390fd5b5b829050613536565b61353583836135b1565b5b949350505050565b6000825111156135515781518083602001fd5b806040517f08c379a00000000000000000000000000000000000000000000000000000000081526004016135859190615735565b60405180910390fd5b6000808273ffffffffffffffffffffffffffffffffffffffff163b119050919050565b6000825111156135c45781518083602001fd5b806040517f08c379a00000000000000000000000000000000000000000000000000000000081526004016135f89190615735565b60405180910390fd5b604051806040016040528060608152602001600080191681525090565b6000604051905090565b600080fd5b600080fd5b600073ffffffffffffffffffffffffffffffffffffffff82169050919050565b600061365d82613632565b9050919050565b61366d81613652565b811461367857600080fd5b50565b60008135905061368a81613664565b92915050565b600080fd5b600080fd5b600080fd5b60008083601f8401126136b5576136b4613690565b5b8235905067ffffffffffffffff8111156136d2576136d1613695565b5b6020830191508360208202830111156136ee576136ed61369a565b5b9250929050565b60008083601f84011261370b5761370a613690565b5b8235905067ffffffffffffffff81111561372857613727613695565b5b6020830191508360208202830111156137445761374361369a565b5b9250929050565b60008060008060006060868803121561376757613766613628565b5b60006137758882890161367b565b955050602086013567ffffffffffffffff8111156137965761379561362d565b5b6137a28882890161369f565b9450945050604086013567ffffffffffffffff8111156137c5576137c461362d565b5b6137d1888289016136f5565b92509250509295509295909350565b6000806000604084860312156137f9576137f8613628565b5b60006138078682870161367b565b935050602084013567ffffffffffffffff8111156138285761382761362d565b5b613834868287016136f5565b92509250509250925092565b600081519050919050565b600082825260208201905092915050565b6000819050602082019050919050565b60008115159050919050565b6138818161386c565b82525050565b60006138938383613878565b60208301905092915050565b6000602082019050919050565b60006138b782613840565b6138c1818561384b565b93506138cc8361385c565b8060005b838110156138fd5781516138e48882613887565b97506138ef8361389f565b9250506001810190506138d0565b5085935050505092915050565b6000602082019050818103600083015261392481846138ac565b905092915050565b60006020828403121561394257613941613628565b5b60006139508482850161367b565b91505092915050565b600061396482613652565b9050919050565b61397481613959565b811461397f57600080fd5b50565b6000813590506139918161396b565b92915050565b600080604083850312156139ae576139ad613628565b5b60006139bc8582860161367b565b92505060206139cd85828601613982565b9150509250929050565b60008083601f8401126139ed576139ec613690565b5b8235905067ffffffffffffffff811115613a0a57613a09613695565b5b602083019150836020820283011115613a2657613a2561369a565b5b9250929050565b60008060208385031215613a4457613a43613628565b5b600083013567ffffffffffffffff811115613a6257613a6161362d565b5b613a6e858286016139d7565b92509250509250929050565b600080fd5b6000601f19601f8301169050919050565b7f4e487b7100000000000000000000000000000000000000000000000000000000600052604160045260246000fd5b613ac882613a7f565b810181811067ffffffffffffffff82111715613ae757613ae6613a90565b5b80604052505050565b6000613afa61361e565b9050613b068282613abf565b919050565b600067ffffffffffffffff821115613b2657613b25613a90565b5b613b2f82613a7f565b9050602081019050919050565b82818337600083830152505050565b6000613b5e613b5984613b0b565b613af0565b905082815260208101848484011115613b7a57613b79613a7a565b5b613b85848285613b3c565b509392505050565b600082601f830112613ba257613ba1613690565b5b8135613bb2848260208601613b4b565b91505092915050565b60008060408385031215613bd257613bd1613628565b5b6000613be08582860161367b565b925050602083013567ffffffffffffffff811115613c0157613c0061362d565b5b613c0d85828601613b8d565b9150509250929050565b6000819050919050565b613c2a81613c17565b82525050565b6000602082019050613c456000830184613c21565b92915050565b60008083601f840112613c6157613c60613690565b5b8235905067ffffffffffffffff811115613c7e57613c7d613695565b5b602083019150836020820283011115613c9a57613c9961369a565b5b9250929050565b600080600080600060608688031215613cbd57613cbc613628565b5b6000613ccb8882890161367b565b955050602086013567ffffffffffffffff811115613cec57613ceb61362d565b5b613cf8888289016136f5565b9450945050604086013567ffffffffffffffff811115613d1b57613d1a61362d565b5b613d2788828901613c4b565b92509250509295509295909350565b600081519050919050565b600082825260208201905092915050565b6000819050602082019050919050565b600081519050919050565b600082825260208201905092915050565b60005b83811015613d9c578082015181840152602081019050613d81565b60008484015250505050565b6000613db382613d62565b613dbd8185613d6d565b9350613dcd818560208601613d7e565b613dd681613a7f565b840191505092915050565b613dea81613c17565b82525050565b60006040830160008301518482036000860152613e0d8282613da8565b9150506020830151613e226020860182613de1565b508091505092915050565b6000613e398383613df0565b905092915050565b6000602082019050919050565b6000613e5982613d36565b613e638185613d41565b935083602082028501613e7585613d52565b8060005b85811015613eb15784840389528151613e928582613e2d565b9450613e9d83613e41565b925060208a01995050600181019050613e79565b50829750879550505050505092915050565b60006020820190508181036000830152613edd8184613e4e565b905092915050565b60008083601f840112613efb57613efa613690565b5b8235905067ffffffffffffffff811115613f1857613f17613695565b5b602083019150836020820283011115613f3457613f3361369a565b5b9250929050565b600080600080600060608688031215613f5757613f56613628565b5b6000613f658882890161367b565b955050602086013567ffffffffffffffff811115613f8657613f8561362d565b5b613f92888289016136f5565b9450945050604086013567ffffffffffffffff811115613fb557613fb461362d565b5b613fc188828901613ee5565b92509250509295509295909350565b6000819050919050565b613fe381613fd0565b8114613fee57600080fd5b50565b60008135905061400081613fda565b92915050565b600080600080606085870312156140205761401f613628565b5b600061402e8782880161367b565b945050602061403f87828801613ff1565b935050604085013567ffffffffffffffff8111156140605761405f61362d565b5b61406c878288016139d7565b925092505092959194509250565b600081519050919050565b600082825260208201905092915050565b6000819050602082019050919050565b6140af81613fd0565b82525050565b60006140c183836140a6565b60208301905092915050565b6000602082019050919050565b60006140e58261407a565b6140ef8185614085565b93506140fa83614096565b8060005b8381101561412b57815161411288826140b5565b975061411d836140cd565b9250506001810190506140fe565b5085935050505092915050565b6000604082019050818103600083015261415281856140da565b9050818103602083015261416681846140da565b90509392505050565b600081519050919050565b600082825260208201905092915050565b6000819050602082019050919050565b6141a481613652565b82525050565b60006141b6838361419b565b60208301905092915050565b6000602082019050919050565b60006141da8261416f565b6141e4818561417a565b93506141ef8361418b565b8060005b8381101561422057815161420788826141aa565b9750614212836141c2565b9250506001810190506141f3565b5085935050505092915050565b6000602082019050818103600083015261424781846141cf565b905092915050565b60008060006040848603121561426857614267613628565b5b60006142768682870161367b565b935050602084013567ffffffffffffffff8111156142975761429661362d565b5b6142a3868287016139d7565b92509250509250925092565b600080600080604085870312156142c9576142c8613628565b5b600085013567ffffffffffffffff8111156142e7576142e661362d565b5b6142f3878288016139d7565b9450945050602085013567ffffffffffffffff8111156143165761431561362d565b5b614322878288016136f5565b925092505092959194509250565b60008060006060848603121561434957614348613628565b5b60006143578682870161367b565b93505060206143688682870161367b565b925050604061437986828701613ff1565b9150509250925092565b6000819050919050565b60006143a86143a361439e84613632565b614383565b613632565b9050919050565b60006143ba8261438d565b9050919050565b60006143cc826143af565b9050919050565b6143dc816143c1565b82525050565b60006020820190506143f760008301846143d3565b92915050565b61440681613652565b82525050565b60006040820190506144216000830185613c21565b61442e60208301846143fd565b9392505050565b61443e8161386c565b811461444957600080fd5b50565b60008151905061445b81614435565b92915050565b60006020828403121561447757614476613628565b5b60006144858482850161444c565b91505092915050565b60006020820190506144a360008301846143fd565b92915050565b7f4e487b7100000000000000000000000000000000000000000000000000000000600052603260045260246000fd5b600080fd5b600080fd5b600080fd5b600082356001604003833603038112614503576145026144d8565b5b80830191505092915050565b6000808335600160200384360303811261452c5761452b6144d8565b5b80840192508235915067ffffffffffffffff82111561454e5761454d6144dd565b5b60208301925060208202360383131561456a576145696144e2565b5b509250929050565b6000808335600160200384360303811261458f5761458e6144d8565b5b80840192508235915067ffffffffffffffff8211156145b1576145b06144dd565b5b6020830192506020820236038313156145cd576145cc6144e2565b5b509250929050565b6145de81613fd0565b82525050565b60006040820190506145f960008301856143fd565b61460660208301846145d5565b9392505050565b7f4e487b7100000000000000000000000000000000000000000000000000000000600052601160045260246000fd5b600061464782613fd0565b91507fffffffffffffffffffffffffffffffffffffffffffffffffffffffffffffffff82036146795761467861460d565b5b600182019050919050565b600082825260208201905092915050565b7f46756e6374696f6e206d7573742062652063616c6c6564207468726f7567682060008201527f64656c656761746563616c6c0000000000000000000000000000000000000000602082015250565b60006146f1602c83614684565b91506146fc82614695565b604082019050919050565b60006020820190508181036000830152614720816146e4565b9050919050565b7f46756e6374696f6e206d7573742062652063616c6c6564207468726f7567682060008201527f6163746976652070726f78790000000000000000000000000000000000000000602082015250565b6000614783602c83614684565b915061478e82614727565b604082019050919050565b600060208201905081810360008301526147b281614776565b9050919050565b7f496e697469616c697a61626c653a20636f6e747261637420697320616c72656160008201527f647920696e697469616c697a6564000000000000000000000000000000000000602082015250565b6000614815602e83614684565b9150614820826147b9565b604082019050919050565b6000602082019050818103600083015261484481614808565b9050919050565b6000819050919050565b600060ff82169050919050565b600061487d6148786148738461484b565b614383565b614855565b9050919050565b61488d81614862565b82525050565b60006020820190506148a86000830184614884565b92915050565b7f555550535570677261646561626c653a206d757374206e6f742062652063616c60008201527f6c6564207468726f7567682064656c656761746563616c6c0000000000000000602082015250565b600061490a603883614684565b9150614915826148ae565b604082019050919050565b60006020820190508181036000830152614939816148fd565b9050919050565b60008135905061494f81614435565b92915050565b60006020828403121561496b5761496a613628565b5b600061497984828501614940565b91505092915050565b61498b8161386c565b82525050565b60006020820190506149a66000830184614982565b92915050565b7f4e487b7100000000000000000000000000000000000000000000000000000000600052602260045260246000fd5b600060028204905060018216806149f357607f821691505b602082108103614a0657614a056149ac565b5b50919050565b600082356001604003833603038112614a2857614a276144d8565b5b80830191505092915050565b60008083356001602003843603038112614a5157614a506144d8565b5b80840192508235915067ffffffffffffffff821115614a7357614a726144dd565b5b602083019250600182023603831315614a8f57614a8e6144e2565b5b509250929050565b600082905092915050565b60008190508160005260206000209050919050565b60006020601f8301049050919050565b600082821b905092915050565b600060088302614b047fffffffffffffffffffffffffffffffffffffffffffffffffffffffffffffffff82614ac7565b614b0e8683614ac7565b95508019841693508086168417925050509392505050565b6000614b41614b3c614b3784613fd0565b614383565b613fd0565b9050919050565b6000819050919050565b614b5b83614b26565b614b6f614b6782614b48565b848454614ad4565b825550505050565b600090565b614b84614b77565b614b8f818484614b52565b505050565b5b81811015614bb357614ba8600082614b7c565b600181019050614b95565b5050565b601f821115614bf857614bc981614aa2565b614bd284614ab7565b81016020851015614be1578190505b614bf5614bed85614ab7565b830182614b94565b50505b505050565b600082821c905092915050565b6000614c1b60001984600802614bfd565b1980831691505092915050565b6000614c348383614c0a565b9150826002028217905092915050565b614c4e8383614a97565b67ffffffffffffffff811115614c6757614c66613a90565b5b614c7182546149db565b614c7c828285614bb7565b6000601f831160018114614cab5760008415614c99578287013590505b614ca38582614c28565b865550614d0b565b601f198416614cb986614aa2565b60005b82811015614ce157848901358255600182019150602085019450602081019050614cbc565b86831015614cfe5784890135614cfa601f891682614c0a565b8355505b6001600288020188555050505b50505050505050565b614d1f838383614c44565b505050565b614d2d81613c17565b8114614d3857600080fd5b50565b60008135614d4881614d24565b80915050919050565b60008160001b9050919050565b60007fffffffffffffffffffffffffffffffffffffffffffffffffffffffffffffffff614d8a84614d51565b9350801983169250808416831791505092915050565b6000614dab82613c17565b9050919050565b60008160001c9050919050565b6000614dca82614db2565b9050919050565b614dda82614da0565b614ded614de682614dbf565b8354614d5e565b8255505050565b6000810160008301614e068185614a34565b614e11818386614d14565b50505050600181016020830180614e2781614d3b565b9050614e338184614dd1565b5050505050565b614e448282614df4565b5050565b600082825260208201905092915050565b6000614e658385614e48565b9350614e72838584613b3c565b614e7b83613a7f565b840190509392505050565b60006040820190508181036000830152614ea1818587614e59565b9050614eb06020830184613c21565b949350505050565b6000602082019050614ecd60008301846145d5565b92915050565b60008160011c9050919050565b6000808291508390505b6001851115614f2a57808604811115614f0657614f0561460d565b5b6001851615614f155780820291505b8081029050614f2385614ed3565b9450614eea565b94509492505050565b600082614f435760019050614fff565b81614f515760009050614fff565b8160018114614f675760028114614f7157614fa0565b6001915050614fff565b60ff841115614f8357614f8261460d565b5b8360020a915084821115614f9a57614f9961460d565b5b50614fff565b5060208310610133831016604e8410600b8410161715614fd55782820a905083811115614fd057614fcf61460d565b5b614fff565b614fe28484846001614ee0565b92509050818404811115614ff957614ff861460d565b5b81810290505b9392505050565b600061501182613fd0565b915061501c83613fd0565b92506150497fffffffffffffffffffffffffffffffffffffffffffffffffffffffffffffffff8484614f33565b905092915050565b600061505c82613fd0565b915061506783613fd0565b925082820261507581613fd0565b9150828204841483151761508c5761508b61460d565b5b5092915050565b60006060830160008301516150ab600086018261419b565b50602083015184820360208601526150c38282613da8565b91505060408301516150d86040860182613de1565b508091505092915050565b600060208201905081810360008301526150fd8184615093565b905092915050565b60008151905061511481613fda565b92915050565b6000602082840312156151305761512f613628565b5b600061513e84828501615105565b91505092915050565b600060608201905061515c60008301866143fd565b61516960208301856145d5565b61517660408301846143fd565b949350505050565b60008151905061518d81614d24565b92915050565b6000602082840312156151a9576151a8613628565b5b60006151b78482850161517e565b91505092915050565b7f45524331393637557067726164653a206e657720696d706c656d656e7461746960008201527f6f6e206973206e6f742055555053000000000000000000000000000000000000602082015250565b600061521c602e83614684565b9150615227826151c0565b604082019050919050565b6000602082019050818103600083015261524b8161520f565b9050919050565b7f45524331393637557067726164653a20756e737570706f727465642070726f7860008201527f6961626c65555549440000000000000000000000000000000000000000000000602082015250565b60006152ae602983614684565b91506152b982615252565b604082019050919050565b600060208201905081810360008301526152dd816152a1565b9050919050565b7f496e697469616c697a61626c653a20636f6e7472616374206973206e6f74206960008201527f6e697469616c697a696e67000000000000000000000000000000000000000000602082015250565b6000615340602b83614684565b915061534b826152e4565b604082019050919050565b6000602082019050818103600083015261536f81615333565b9050919050565b7f5265656e7472616e637947756172643a207265656e7472616e742063616c6c00600082015250565b60006153ac601f83614684565b91506153b782615376565b602082019050919050565b600060208201905081810360008301526153db8161539f565b9050919050565b60006060820190506153f760008301866143fd565b61540460208301856143fd565b61541160408301846145d5565b949350505050565b7f455243313936373a206e657720696d706c656d656e746174696f6e206973206e60008201527f6f74206120636f6e747261637400000000000000000000000000000000000000602082015250565b6000615475602d83614684565b915061548082615419565b604082019050919050565b600060208201905081810360008301526154a481615468565b9050919050565b60006154b682613fd0565b91506154c183613fd0565b92508282039050818111156154d9576154d861460d565b5b92915050565b7f4e487b7100000000000000000000000000000000000000000000000000000000600052603160045260246000fd5b7f5361666545524332303a204552433230206f7065726174696f6e20646964206e60008201527f6f74207375636365656400000000000000000000000000000000000000000000602082015250565b600061556a602a83614684565b91506155758261550e565b604082019050919050565b600060208201905081810360008301526155998161555d565b9050919050565b600081905092915050565b60006155b682613d62565b6155c081856155a0565b93506155d0818560208601613d7e565b80840191505092915050565b60006155e882846155ab565b915081905092915050565b7f416464726573733a20696e73756666696369656e742062616c616e636520666f60008201527f722063616c6c0000000000000000000000000000000000000000000000000000602082015250565b600061564f602683614684565b915061565a826155f3565b604082019050919050565b6000602082019050818103600083015261567e81615642565b9050919050565b7f416464726573733a2063616c6c20746f206e6f6e2d636f6e7472616374000000600082015250565b60006156bb601d83614684565b91506156c682615685565b602082019050919050565b600060208201905081810360008301526156ea816156ae565b9050919050565b600081519050919050565b6000615707826156f1565b6157118185614684565b9350615721818560208601613d7e565b61572a81613a7f565b840191505092915050565b6000602082019050818103600083015261574f81846156fc565b90509291505056fe416464726573733a206c6f772d6c6576656c2064656c65676174652063616c6c206661696c6564a2646970667358221220192f3be8f43707a13fa1279f4f0d0c24d42ac6ad0b5741c9adb606cf39d94b9164736f6c63430008120033",
  "linkReferences": {},
  "deployedLinkReferences": {}
}