{
  "_format": "hh-sol-artifact-1",
  "contractName": "BluumNftV2",
  "sourceName": "contracts/mock/BluumNftV2.sol",
  "abi": [
    {
      "inputs": [
        {
          "internalType": "address",
          "name": "caller",
          "type": "address"
        }
      ],
      "name": "IsNotWhitelisted",
      "type": "error"
    },
    {
      "inputs": [],
      "name": "NullValue",
      "type": "error"
    },
    {
      "inputs": [
        {
          "internalType": "address",
          "name": "caller",
          "type": "address"
        }
      ],
      "name": "OnlyAdminCanCall",
      "type": "error"
    },
    {
      "inputs": [
        {
          "internalType": "address",
          "name": "caller",
          "type": "address"
        }
      ],
      "name": "OnlyFactoryCanCall",
      "type": "error"
    },
    {
      "inputs": [
        {
          "internalType": "address",
          "name": "caller",
          "type": "address"
        }
      ],
      "name": "OnlyMinterCanCall",
      "type": "error"
    },
    {
      "inputs": [
        {
          "internalType": "address",
          "name": "caller",
          "type": "address"
        }
      ],
      "name": "OnlyTokenOwnerCanCall",
      "type": "error"
    },
    {
      "inputs": [
        {
          "internalType": "uint256",
          "name": "tokenId",
          "type": "uint256"
        }
      ],
      "name": "TokenIdAlreadyMinted",
      "type": "error"
    },
    {
      "inputs": [
        {
          "internalType": "bytes",
          "name": "privateURI",
          "type": "bytes"
        }
      ],
      "name": "WrongPrivateURI",
      "type": "error"
    },
    {
      "inputs": [
        {
          "internalType": "uint256",
          "name": "tokenId",
          "type": "uint256"
        }
      ],
      "name": "WrongTokenId",
      "type": "error"
    },
    {
      "inputs": [],
      "name": "ZeroAddress",
      "type": "error"
    },
    {
      "anonymous": false,
      "inputs": [
        {
          "indexed": true,
          "internalType": "address",
          "name": "owner",
          "type": "address"
        },
        {
          "indexed": true,
          "internalType": "address",
          "name": "approved",
          "type": "address"
        },
        {
          "indexed": true,
          "internalType": "uint256",
          "name": "tokenId",
          "type": "uint256"
        }
      ],
      "name": "Approval",
      "type": "event"
    },
    {
      "anonymous": false,
      "inputs": [
        {
          "indexed": true,
          "internalType": "address",
          "name": "owner",
          "type": "address"
        },
        {
          "indexed": true,
          "internalType": "address",
          "name": "operator",
          "type": "address"
        },
        {
          "indexed": false,
          "internalType": "bool",
          "name": "approved",
          "type": "bool"
        }
      ],
      "name": "ApprovalForAll",
      "type": "event"
    },
    {
      "anonymous": false,
      "inputs": [
        {
          "indexed": false,
          "internalType": "uint8",
          "name": "version",
          "type": "uint8"
        }
      ],
      "name": "Initialized",
      "type": "event"
    },
    {
      "anonymous": false,
      "inputs": [
        {
          "indexed": true,
          "internalType": "uint256",
          "name": "tokenID",
          "type": "uint256"
        },
        {
          "indexed": true,
          "internalType": "address",
          "name": "owner",
          "type": "address"
        }
      ],
      "name": "TokenMinted",
      "type": "event"
    },
    {
      "anonymous": false,
      "inputs": [
        {
          "indexed": true,
          "internalType": "address",
          "name": "from",
          "type": "address"
        },
        {
          "indexed": true,
          "internalType": "address",
          "name": "to",
          "type": "address"
        },
        {
          "indexed": true,
          "internalType": "uint256",
          "name": "tokenId",
          "type": "uint256"
        }
      ],
      "name": "Transfer",
      "type": "event"
    },
    {
      "inputs": [],
      "name": "accessManager",
      "outputs": [
        {
          "internalType": "contract IAccessManager",
          "name": "",
          "type": "address"
        }
      ],
      "stateMutability": "view",
      "type": "function"
    },
    {
      "inputs": [
        {
          "internalType": "address",
          "name": "to",
          "type": "address"
        },
        {
          "internalType": "uint256",
          "name": "tokenId",
          "type": "uint256"
        }
      ],
      "name": "approve",
      "outputs": [],
      "stateMutability": "nonpayable",
      "type": "function"
    },
    {
      "inputs": [
        {
          "internalType": "address",
          "name": "owner",
          "type": "address"
        }
      ],
      "name": "balanceOf",
      "outputs": [
        {
          "internalType": "uint256",
          "name": "",
          "type": "uint256"
        }
      ],
      "stateMutability": "view",
      "type": "function"
    },
    {
      "inputs": [
        {
          "internalType": "uint256",
          "name": "_tokenId",
          "type": "uint256"
        }
      ],
      "name": "exists",
      "outputs": [
        {
          "internalType": "bool",
          "name": "isMinted",
          "type": "bool"
        }
      ],
      "stateMutability": "view",
      "type": "function"
    },
    {
      "inputs": [],
      "name": "factory",
      "outputs": [
        {
          "internalType": "contract BluumFactory",
          "name": "",
          "type": "address"
        }
      ],
      "stateMutability": "view",
      "type": "function"
    },
    {
      "inputs": [
        {
          "internalType": "uint256",
          "name": "tokenId",
          "type": "uint256"
        }
      ],
      "name": "getApproved",
      "outputs": [
        {
          "internalType": "address",
          "name": "",
          "type": "address"
        }
      ],
      "stateMutability": "view",
      "type": "function"
    },
    {
      "inputs": [
        {
          "internalType": "string",
          "name": "_name",
          "type": "string"
        },
        {
          "internalType": "string",
          "name": "_symbol",
          "type": "string"
        },
        {
          "internalType": "contract IAccessManager",
          "name": "_accessManager",
          "type": "address"
        },
        {
          "internalType": "contract IWhitelist",
          "name": "_whitelist",
          "type": "address"
        }
      ],
      "name": "initialize",
      "outputs": [],
      "stateMutability": "nonpayable",
      "type": "function"
    },
    {
      "inputs": [
        {
          "internalType": "address",
          "name": "owner",
          "type": "address"
        },
        {
          "internalType": "address",
          "name": "operator",
          "type": "address"
        }
      ],
      "name": "isApprovedForAll",
      "outputs": [
        {
          "internalType": "bool",
          "name": "",
          "type": "bool"
        }
      ],
      "stateMutability": "view",
      "type": "function"
    },
    {
      "inputs": [
        {
          "components": [
            {
              "internalType": "address",
              "name": "to",
              "type": "address"
            },
            {
              "internalType": "bytes",
              "name": "publicURI",
              "type": "bytes"
            },
            {
              "internalType": "bytes32",
              "name": "hashPrivateURI",
              "type": "bytes32"
            }
          ],
          "internalType": "struct IBluumNft.MintInputData",
          "name": "_inputData",
          "type": "tuple"
        }
      ],
      "name": "mint",
      "outputs": [
        {
          "internalType": "uint256",
          "name": "_tokenId",
          "type": "uint256"
        }
      ],
      "stateMutability": "nonpayable",
      "type": "function"
    },
    {
      "inputs": [
        {
          "components": [
            {
              "internalType": "address",
              "name": "to",
              "type": "address"
            },
            {
              "internalType": "bytes",
              "name": "publicURI",
              "type": "bytes"
            },
            {
              "internalType": "bytes32",
              "name": "hashPrivateURI",
              "type": "bytes32"
            }
          ],
          "internalType": "struct IBluumNft.MintInputData[]",
          "name": "_mintInputData",
          "type": "tuple[]"
        }
      ],
      "name": "mintBatch",
      "outputs": [
        {
          "internalType": "uint256[]",
          "name": "_tokenIds",
          "type": "uint256[]"
        }
      ],
      "stateMutability": "nonpayable",
      "type": "function"
    },
    {
      "inputs": [],
      "name": "name",
      "outputs": [
        {
          "internalType": "string",
          "name": "",
          "type": "string"
        }
      ],
      "stateMutability": "view",
      "type": "function"
    },
    {
      "inputs": [
        {
          "internalType": "uint256",
          "name": "tokenId",
          "type": "uint256"
        }
      ],
      "name": "ownerOf",
      "outputs": [
        {
          "internalType": "address",
          "name": "",
          "type": "address"
        }
      ],
      "stateMutability": "view",
      "type": "function"
    },
    {
      "inputs": [
        {
          "internalType": "uint256",
          "name": "_tokenId",
          "type": "uint256"
        },
        {
          "internalType": "bytes",
          "name": "privateURI",
          "type": "bytes"
        }
      ],
      "name": "revealPrivateURI",
      "outputs": [],
      "stateMutability": "nonpayable",
      "type": "function"
    },
    {
      "inputs": [
        {
          "internalType": "address",
          "name": "from",
          "type": "address"
        },
        {
          "internalType": "address",
          "name": "to",
          "type": "address"
        },
        {
          "internalType": "uint256",
          "name": "tokenId",
          "type": "uint256"
        }
      ],
      "name": "safeTransferFrom",
      "outputs": [],
      "stateMutability": "nonpayable",
      "type": "function"
    },
    {
      "inputs": [
        {
          "internalType": "address",
          "name": "from",
          "type": "address"
        },
        {
          "internalType": "address",
          "name": "to",
          "type": "address"
        },
        {
          "internalType": "uint256",
          "name": "tokenId",
          "type": "uint256"
        },
        {
          "internalType": "bytes",
          "name": "data",
          "type": "bytes"
        }
      ],
      "name": "safeTransferFrom",
      "outputs": [],
      "stateMutability": "nonpayable",
      "type": "function"
    },
    {
      "inputs": [],
      "name": "sayHello",
      "outputs": [
        {
          "internalType": "string",
          "name": "_hello",
          "type": "string"
        }
      ],
      "stateMutability": "pure",
      "type": "function"
    },
    {
      "inputs": [
        {
          "internalType": "address",
          "name": "operator",
          "type": "address"
        },
        {
          "internalType": "bool",
          "name": "approved",
          "type": "bool"
        }
      ],
      "name": "setApprovalForAll",
      "outputs": [],
      "stateMutability": "nonpayable",
      "type": "function"
    },
    {
      "inputs": [
        {
          "internalType": "bytes4",
          "name": "interfaceId",
          "type": "bytes4"
        }
      ],
      "name": "supportsInterface",
      "outputs": [
        {
          "internalType": "bool",
          "name": "",
          "type": "bool"
        }
      ],
      "stateMutability": "view",
      "type": "function"
    },
    {
      "inputs": [],
      "name": "symbol",
      "outputs": [
        {
          "internalType": "string",
          "name": "",
          "type": "string"
        }
      ],
      "stateMutability": "view",
      "type": "function"
    },
    {
      "inputs": [
        {
          "internalType": "uint256",
          "name": "_tokenId",
          "type": "uint256"
        }
      ],
      "name": "tokenURI",
      "outputs": [
        {
          "internalType": "string",
          "name": "",
          "type": "string"
        }
      ],
      "stateMutability": "view",
      "type": "function"
    },
    {
      "inputs": [
        {
          "internalType": "address",
          "name": "from",
          "type": "address"
        },
        {
          "internalType": "address",
          "name": "to",
          "type": "address"
        },
        {
          "internalType": "uint256",
          "name": "tokenId",
          "type": "uint256"
        }
      ],
      "name": "transferFrom",
      "outputs": [],
      "stateMutability": "nonpayable",
      "type": "function"
    },
    {
      "inputs": [],
      "name": "whitelist",
      "outputs": [
        {
          "internalType": "contract IWhitelist",
          "name": "",
          "type": "address"
        }
      ],
      "stateMutability": "view",
      "type": "function"
    }
  ],
  "bytecode": "0x608060405234801561001057600080fd5b50613db6806100206000396000f3fe608060405234801561001057600080fd5b50600436106101425760003560e01c806395d89b41116100b8578063c45a01551161007c578063c45a015514610399578063c87b56dd146103b7578063d054a5c0146103e7578063e985e9c514610403578063ef5fb05b14610433578063fdcb60681461045157610142565b806395d89b41146102e3578063a22cb46514610301578063aa5486b61461031d578063b61b4d071461034d578063b88d4fde1461037d57610142565b806342842e0e1161010a57806342842e0e146101fd5780634f558e79146102195780636352211e1461024957806370a08231146102795780638f15b414146102a957806393e59dc1146102c557610142565b806301ffc9a71461014757806306fdde0314610177578063081812fc14610195578063095ea7b3146101c557806323b872dd146101e1575b600080fd5b610161600480360381019061015c919061226b565b61046f565b60405161016e91906122b3565b60405180910390f35b61017f610551565b60405161018c919061235e565b60405180910390f35b6101af60048036038101906101aa91906123b6565b6105e3565b6040516101bc9190612424565b60405180910390f35b6101df60048036038101906101da919061246b565b610629565b005b6101fb60048036038101906101f691906124ab565b610740565b005b610217600480360381019061021291906124ab565b6107a0565b005b610233600480360381019061022e91906123b6565b6107c0565b60405161024091906122b3565b60405180910390f35b610263600480360381019061025e91906123b6565b6107d2565b6040516102709190612424565b60405180910390f35b610293600480360381019061028e91906124fe565b610858565b6040516102a0919061253a565b60405180910390f35b6102c360048036038101906102be9190612706565b61090f565b005b6102cd610bfc565b6040516102da9190612804565b60405180910390f35b6102eb610c22565b6040516102f8919061235e565b60405180910390f35b61031b6004803603810190610316919061284b565b610cb4565b005b610337600480360381019061033291906128eb565b610cca565b60405161034491906129f6565b60405180910390f35b61036760048036038101906103629190612a3c565b610d8c565b604051610374919061253a565b60405180910390f35b61039760048036038101906103929190612b26565b611064565b005b6103a16110c6565b6040516103ae9190612bca565b60405180910390f35b6103d160048036038101906103cc91906123b6565b6110ec565b6040516103de919061235e565b60405180910390f35b61040160048036038101906103fc9190612c3b565b611205565b005b61041d60048036038101906104189190612c9b565b61131b565b60405161042a91906122b3565b60405180910390f35b61043b6113af565b604051610448919061235e565b60405180910390f35b6104596113ec565b6040516104669190612cfc565b60405180910390f35b60007f80ac58cd000000000000000000000000000000000000000000000000000000007bffffffffffffffffffffffffffffffffffffffffffffffffffffffff1916827bffffffffffffffffffffffffffffffffffffffffffffffffffffffff1916148061053a57507f5b5e139f000000000000000000000000000000000000000000000000000000007bffffffffffffffffffffffffffffffffffffffffffffffffffffffff1916827bffffffffffffffffffffffffffffffffffffffffffffffffffffffff1916145b8061054a575061054982611412565b5b9050919050565b60606065805461056090612d46565b80601f016020809104026020016040519081016040528092919081815260200182805461058c90612d46565b80156105d95780601f106105ae576101008083540402835291602001916105d9565b820191906000526020600020905b8154815290600101906020018083116105bc57829003601f168201915b5050505050905090565b60006105ee8261147c565b6069600083815260200190815260200160002060009054906101000a900473ffffffffffffffffffffffffffffffffffffffff169050919050565b6000610634826107d2565b90508073ffffffffffffffffffffffffffffffffffffffff168373ffffffffffffffffffffffffffffffffffffffff16036106a4576040517f08c379a000000000000000000000000000000000000000000000000000000000815260040161069b90612de9565b60405180910390fd5b8073ffffffffffffffffffffffffffffffffffffffff166106c36114c7565b73ffffffffffffffffffffffffffffffffffffffff1614806106f257506106f1816106ec6114c7565b61131b565b5b610731576040517f08c379a000000000000000000000000000000000000000000000000000000000815260040161072890612e7b565b60405180910390fd5b61073b83836114cf565b505050565b61075161074b6114c7565b82611588565b610790576040517f08c379a000000000000000000000000000000000000000000000000000000000815260040161078790612f0d565b60405180910390fd5b61079b83838361161d565b505050565b6107bb83838360405180602001604052806000815250611064565b505050565b60006107cb82611916565b9050919050565b6000806107de83611957565b9050600073ffffffffffffffffffffffffffffffffffffffff168173ffffffffffffffffffffffffffffffffffffffff160361084f576040517f08c379a000000000000000000000000000000000000000000000000000000000815260040161084690612f79565b60405180910390fd5b80915050919050565b60008073ffffffffffffffffffffffffffffffffffffffff168273ffffffffffffffffffffffffffffffffffffffff16036108c8576040517f08c379a00000000000000000000000000000000000000000000000000000000081526004016108bf9061300b565b60405180910390fd5b606860008373ffffffffffffffffffffffffffffffffffffffff1673ffffffffffffffffffffffffffffffffffffffff168152602001908152602001600020549050919050565b60008060019054906101000a900460ff161590508080156109405750600160008054906101000a900460ff1660ff16105b8061096d575061094f30611994565b15801561096c5750600160008054906101000a900460ff1660ff16145b5b6109ac576040517f08c379a00000000000000000000000000000000000000000000000000000000081526004016109a39061309d565b60405180910390fd5b60016000806101000a81548160ff021916908360ff16021790555080156109e9576001600060016101000a81548160ff0219169083151502179055505b600073ffffffffffffffffffffffffffffffffffffffff168273ffffffffffffffffffffffffffffffffffffffff161480610a505750600073ffffffffffffffffffffffffffffffffffffffff168373ffffffffffffffffffffffffffffffffffffffff16145b15610a87576040517fd92e233d00000000000000000000000000000000000000000000000000000000815260040160405180910390fd5b600085511480610a98575060008451145b15610acf576040517fa7583c0800000000000000000000000000000000000000000000000000000000815260040160405180910390fd5b33609960006101000a81548173ffffffffffffffffffffffffffffffffffffffff021916908373ffffffffffffffffffffffffffffffffffffffff160217905550610b1a85856119b7565b82609a60006101000a81548173ffffffffffffffffffffffffffffffffffffffff021916908373ffffffffffffffffffffffffffffffffffffffff16021790555081609b60006101000a81548173ffffffffffffffffffffffffffffffffffffffff021916908373ffffffffffffffffffffffffffffffffffffffff1602179055508015610bf55760008060016101000a81548160ff0219169083151502179055507f7f26b83ff96e1f2b6a682f133852f6798a09c465da95921460cefb38474024986001604051610bec9190613105565b60405180910390a15b5050505050565b609b60009054906101000a900473ffffffffffffffffffffffffffffffffffffffff1681565b606060668054610c3190612d46565b80601f0160208091040260200160405190810160405280929190818152602001828054610c5d90612d46565b8015610caa5780601f10610c7f57610100808354040283529160200191610caa565b820191906000526020600020905b815481529060010190602001808311610c8d57829003601f168201915b5050505050905090565b610cc6610cbf6114c7565b8383611a14565b5050565b60608282905067ffffffffffffffff811115610ce957610ce861255f565b5b604051908082528060200260200182016040528015610d175781602001602082028036833780820191505090505b50905060005b83839050811015610d8557610d55848483818110610d3e57610d3d613120565b5b9050602002810190610d50919061315e565b610d8c565b828281518110610d6857610d67613120565b5b60200260200101818152505080610d7e906131b5565b9050610d1d565b5092915050565b6000609a60009054906101000a900473ffffffffffffffffffffffffffffffffffffffff1673ffffffffffffffffffffffffffffffffffffffff166391d148547f9f2df0fed2c77648de5860a4cc508cd0818c85b8b8a1ab4ceeef8d981c8956a6336040518363ffffffff1660e01b8152600401610e0b929190613216565b602060405180830381865afa158015610e28573d6000803e3d6000fd5b505050506040513d601f19601f82011682018060405250810190610e4c9190613254565b610e8d57336040517f1e964c62000000000000000000000000000000000000000000000000000000008152600401610e849190612424565b60405180910390fd5b609b60009054906101000a900473ffffffffffffffffffffffffffffffffffffffff1673ffffffffffffffffffffffffffffffffffffffff1663b6b35272836000016020810190610ede91906124fe565b306040518363ffffffff1660e01b8152600401610efc929190613281565b602060405180830381865afa158015610f19573d6000803e3d6000fd5b505050506040513d601f19601f82011682018060405250810190610f3d9190613254565b610f9057816000016020810190610f5491906124fe565b6040517f2d1e22ea000000000000000000000000000000000000000000000000000000008152600401610f879190612424565b60405180910390fd5b610f9a6098611b80565b9050610fa66098611b8e565b600060976000838152602001908152602001600020905082604001358160010181905550828060200190610fda91906132aa565b826000019182610feb9291906134ba565b5061100883600001602081019061100291906124fe565b83611ba4565b82600001602081019061101b91906124fe565b73ffffffffffffffffffffffffffffffffffffffff16827f3a5398bda6f1f57d6c96834fa9bf02b5517bdc847d14312015a917ba421c31c960405160405180910390a350919050565b61107561106f6114c7565b83611588565b6110b4576040517f08c379a00000000000000000000000000000000000000000000000000000000081526004016110ab90612f0d565b60405180910390fd5b6110c084848484611bc2565b50505050565b609960009054906101000a900473ffffffffffffffffffffffffffffffffffffffff1681565b60606110f782611916565b61113857816040517f23f7828a00000000000000000000000000000000000000000000000000000000815260040161112f919061253a565b60405180910390fd5b6111df60976000848152602001908152602001600020600001805461115c90612d46565b80601f016020809104026020016040519081016040528092919081815260200182805461118890612d46565b80156111d55780601f106111aa576101008083540402835291602001916111d5565b820191906000526020600020905b8154815290600101906020018083116111b857829003601f168201915b5050505050611c1e565b6040516020016111ef9190613612565b6040516020818303038152906040529050919050565b61120e836107d2565b73ffffffffffffffffffffffffffffffffffffffff163373ffffffffffffffffffffffffffffffffffffffff161461127d57336040517f129a86780000000000000000000000000000000000000000000000000000000081526004016112749190612424565b60405180910390fd5b609760008481526020019081526020016000206001015482826040516112a4929190613664565b6040518091039020146112f05781816040517fc20734470000000000000000000000000000000000000000000000000000000081526004016112e79291906136bb565b60405180910390fd5b81816097600086815260200190815260200160002060000191826113159291906134ba565b50505050565b6000606a60008473ffffffffffffffffffffffffffffffffffffffff1673ffffffffffffffffffffffffffffffffffffffff16815260200190815260200160002060008373ffffffffffffffffffffffffffffffffffffffff1673ffffffffffffffffffffffffffffffffffffffff16815260200190815260200160002060009054906101000a900460ff16905092915050565b60606040518060400160405280600581526020017f48656c6c6f000000000000000000000000000000000000000000000000000000815250905090565b609a60009054906101000a900473ffffffffffffffffffffffffffffffffffffffff1681565b60007f01ffc9a7000000000000000000000000000000000000000000000000000000007bffffffffffffffffffffffffffffffffffffffffffffffffffffffff1916827bffffffffffffffffffffffffffffffffffffffffffffffffffffffff1916149050919050565b61148581611916565b6114c4576040517f08c379a00000000000000000000000000000000000000000000000000000000081526004016114bb90612f79565b60405180910390fd5b50565b600033905090565b816069600083815260200190815260200160002060006101000a81548173ffffffffffffffffffffffffffffffffffffffff021916908373ffffffffffffffffffffffffffffffffffffffff160217905550808273ffffffffffffffffffffffffffffffffffffffff16611542836107d2565b73ffffffffffffffffffffffffffffffffffffffff167f8c5be1e5ebec7d5bd14f71427d1e84f3dd0314c0f7b2291e5b200ac8c7c3b92560405160405180910390a45050565b600080611594836107d2565b90508073ffffffffffffffffffffffffffffffffffffffff168473ffffffffffffffffffffffffffffffffffffffff1614806115d657506115d5818561131b565b5b8061161457508373ffffffffffffffffffffffffffffffffffffffff166115fc846105e3565b73ffffffffffffffffffffffffffffffffffffffff16145b91505092915050565b8273ffffffffffffffffffffffffffffffffffffffff1661163d826107d2565b73ffffffffffffffffffffffffffffffffffffffff1614611693576040517f08c379a000000000000000000000000000000000000000000000000000000000815260040161168a90613751565b60405180910390fd5b600073ffffffffffffffffffffffffffffffffffffffff168273ffffffffffffffffffffffffffffffffffffffff1603611702576040517f08c379a00000000000000000000000000000000000000000000000000000000081526004016116f9906137e3565b60405180910390fd5b61170f8383836001611d81565b8273ffffffffffffffffffffffffffffffffffffffff1661172f826107d2565b73ffffffffffffffffffffffffffffffffffffffff1614611785576040517f08c379a000000000000000000000000000000000000000000000000000000000815260040161177c90613751565b60405180910390fd5b6069600082815260200190815260200160002060006101000a81549073ffffffffffffffffffffffffffffffffffffffff02191690556001606860008573ffffffffffffffffffffffffffffffffffffffff1673ffffffffffffffffffffffffffffffffffffffff168152602001908152602001600020600082825403925050819055506001606860008473ffffffffffffffffffffffffffffffffffffffff1673ffffffffffffffffffffffffffffffffffffffff16815260200190815260200160002060008282540192505081905550816067600083815260200190815260200160002060006101000a81548173ffffffffffffffffffffffffffffffffffffffff021916908373ffffffffffffffffffffffffffffffffffffffff160217905550808273ffffffffffffffffffffffffffffffffffffffff168473ffffffffffffffffffffffffffffffffffffffff167fddf252ad1be2c89b69c2b068fc378daa952ba7f163c4a11628f55a4df523b3ef60405160405180910390a46119118383836001611d87565b505050565b60008073ffffffffffffffffffffffffffffffffffffffff1661193883611957565b73ffffffffffffffffffffffffffffffffffffffff1614159050919050565b60006067600083815260200190815260200160002060009054906101000a900473ffffffffffffffffffffffffffffffffffffffff169050919050565b6000808273ffffffffffffffffffffffffffffffffffffffff163b119050919050565b600060019054906101000a900460ff16611a06576040517f08c379a00000000000000000000000000000000000000000000000000000000081526004016119fd90613875565b60405180910390fd5b611a108282611d8d565b5050565b8173ffffffffffffffffffffffffffffffffffffffff168373ffffffffffffffffffffffffffffffffffffffff1603611a82576040517f08c379a0000000000000000000000000000000000000000000000000000000008152600401611a79906138e1565b60405180910390fd5b80606a60008573ffffffffffffffffffffffffffffffffffffffff1673ffffffffffffffffffffffffffffffffffffffff16815260200190815260200160002060008473ffffffffffffffffffffffffffffffffffffffff1673ffffffffffffffffffffffffffffffffffffffff16815260200190815260200160002060006101000a81548160ff0219169083151502179055508173ffffffffffffffffffffffffffffffffffffffff168373ffffffffffffffffffffffffffffffffffffffff167f17307eab39ab6107e8899845ad3d59bd9653f200f220920489ca2b5937696c3183604051611b7391906122b3565b60405180910390a3505050565b600081600001549050919050565b6001816000016000828254019250508190555050565b611bbe828260405180602001604052806000815250611e00565b5050565b611bcd84848461161d565b611bd984848484611e5b565b611c18576040517f08c379a0000000000000000000000000000000000000000000000000000000008152600401611c0f90613973565b60405180910390fd5b50505050565b60606000825103611c4057604051806020016040528060008152509050611d7c565b6000604051806060016040528060408152602001613d416040913990506000600360028551611c6f9190613993565b611c7991906139f6565b6004611c859190613a27565b67ffffffffffffffff811115611c9e57611c9d61255f565b5b6040519080825280601f01601f191660200182016040528015611cd05781602001600182028036833780820191505090505b509050600182016020820185865187015b80821015611d3c576003820191508151603f8160121c168501518453600184019350603f81600c1c168501518453600184019350603f8160061c168501518453600184019350603f8116850151845360018401935050611ce1565b5050600386510660018114611d585760028114611d6b57611d73565b603d6001830353603d6002830353611d73565b603d60018303535b50505080925050505b919050565b50505050565b50505050565b600060019054906101000a900460ff16611ddc576040517f08c379a0000000000000000000000000000000000000000000000000000000008152600401611dd390613875565b60405180910390fd5b8160659081611deb9190613ac4565b508060669081611dfb9190613ac4565b505050565b611e0a8383611fe2565b611e176000848484611e5b565b611e56576040517f08c379a0000000000000000000000000000000000000000000000000000000008152600401611e4d90613973565b60405180910390fd5b505050565b6000611e7c8473ffffffffffffffffffffffffffffffffffffffff16611994565b15611fd5578373ffffffffffffffffffffffffffffffffffffffff1663150b7a02611ea56114c7565b8786866040518563ffffffff1660e01b8152600401611ec79493929190613bda565b6020604051808303816000875af1925050508015611f0357506040513d601f19601f82011682018060405250810190611f009190613c3b565b60015b611f85573d8060008114611f33576040519150601f19603f3d011682016040523d82523d6000602084013e611f38565b606091505b506000815103611f7d576040517f08c379a0000000000000000000000000000000000000000000000000000000008152600401611f7490613973565b60405180910390fd5b805181602001fd5b63150b7a0260e01b7bffffffffffffffffffffffffffffffffffffffffffffffffffffffff1916817bffffffffffffffffffffffffffffffffffffffffffffffffffffffff191614915050611fda565b600190505b949350505050565b600073ffffffffffffffffffffffffffffffffffffffff168273ffffffffffffffffffffffffffffffffffffffff1603612051576040517f08c379a000000000000000000000000000000000000000000000000000000000815260040161204890613cb4565b60405180910390fd5b61205a81611916565b1561209a576040517f08c379a000000000000000000000000000000000000000000000000000000000815260040161209190613d20565b60405180910390fd5b6120a8600083836001611d81565b6120b181611916565b156120f1576040517f08c379a00000000000000000000000000000000000000000000000000000000081526004016120e890613d20565b60405180910390fd5b6001606860008473ffffffffffffffffffffffffffffffffffffffff1673ffffffffffffffffffffffffffffffffffffffff16815260200190815260200160002060008282540192505081905550816067600083815260200190815260200160002060006101000a81548173ffffffffffffffffffffffffffffffffffffffff021916908373ffffffffffffffffffffffffffffffffffffffff160217905550808273ffffffffffffffffffffffffffffffffffffffff16600073ffffffffffffffffffffffffffffffffffffffff167fddf252ad1be2c89b69c2b068fc378daa952ba7f163c4a11628f55a4df523b3ef60405160405180910390a46121fb600083836001611d87565b5050565b6000604051905090565b600080fd5b600080fd5b60007fffffffff0000000000000000000000000000000000000000000000000000000082169050919050565b61224881612213565b811461225357600080fd5b50565b6000813590506122658161223f565b92915050565b60006020828403121561228157612280612209565b5b600061228f84828501612256565b91505092915050565b60008115159050919050565b6122ad81612298565b82525050565b60006020820190506122c860008301846122a4565b92915050565b600081519050919050565b600082825260208201905092915050565b60005b838110156123085780820151818401526020810190506122ed565b60008484015250505050565b6000601f19601f8301169050919050565b6000612330826122ce565b61233a81856122d9565b935061234a8185602086016122ea565b61235381612314565b840191505092915050565b600060208201905081810360008301526123788184612325565b905092915050565b6000819050919050565b61239381612380565b811461239e57600080fd5b50565b6000813590506123b08161238a565b92915050565b6000602082840312156123cc576123cb612209565b5b60006123da848285016123a1565b91505092915050565b600073ffffffffffffffffffffffffffffffffffffffff82169050919050565b600061240e826123e3565b9050919050565b61241e81612403565b82525050565b60006020820190506124396000830184612415565b92915050565b61244881612403565b811461245357600080fd5b50565b6000813590506124658161243f565b92915050565b6000806040838503121561248257612481612209565b5b600061249085828601612456565b92505060206124a1858286016123a1565b9150509250929050565b6000806000606084860312156124c4576124c3612209565b5b60006124d286828701612456565b93505060206124e386828701612456565b92505060406124f4868287016123a1565b9150509250925092565b60006020828403121561251457612513612209565b5b600061252284828501612456565b91505092915050565b61253481612380565b82525050565b600060208201905061254f600083018461252b565b92915050565b600080fd5b600080fd5b7f4e487b7100000000000000000000000000000000000000000000000000000000600052604160045260246000fd5b61259782612314565b810181811067ffffffffffffffff821117156125b6576125b561255f565b5b80604052505050565b60006125c96121ff565b90506125d5828261258e565b919050565b600067ffffffffffffffff8211156125f5576125f461255f565b5b6125fe82612314565b9050602081019050919050565b82818337600083830152505050565b600061262d612628846125da565b6125bf565b9050828152602081018484840111156126495761264861255a565b5b61265484828561260b565b509392505050565b600082601f83011261267157612670612555565b5b813561268184826020860161261a565b91505092915050565b600061269582612403565b9050919050565b6126a58161268a565b81146126b057600080fd5b50565b6000813590506126c28161269c565b92915050565b60006126d382612403565b9050919050565b6126e3816126c8565b81146126ee57600080fd5b50565b600081359050612700816126da565b92915050565b600080600080608085870312156127205761271f612209565b5b600085013567ffffffffffffffff81111561273e5761273d61220e565b5b61274a8782880161265c565b945050602085013567ffffffffffffffff81111561276b5761276a61220e565b5b6127778782880161265c565b9350506040612788878288016126b3565b9250506060612799878288016126f1565b91505092959194509250565b6000819050919050565b60006127ca6127c56127c0846123e3565b6127a5565b6123e3565b9050919050565b60006127dc826127af565b9050919050565b60006127ee826127d1565b9050919050565b6127fe816127e3565b82525050565b600060208201905061281960008301846127f5565b92915050565b61282881612298565b811461283357600080fd5b50565b6000813590506128458161281f565b92915050565b6000806040838503121561286257612861612209565b5b600061287085828601612456565b925050602061288185828601612836565b9150509250929050565b600080fd5b600080fd5b60008083601f8401126128ab576128aa612555565b5b8235905067ffffffffffffffff8111156128c8576128c761288b565b5b6020830191508360208202830111156128e4576128e3612890565b5b9250929050565b6000806020838503121561290257612901612209565b5b600083013567ffffffffffffffff8111156129205761291f61220e565b5b61292c85828601612895565b92509250509250929050565b600081519050919050565b600082825260208201905092915050565b6000819050602082019050919050565b61296d81612380565b82525050565b600061297f8383612964565b60208301905092915050565b6000602082019050919050565b60006129a382612938565b6129ad8185612943565b93506129b883612954565b8060005b838110156129e95781516129d08882612973565b97506129db8361298b565b9250506001810190506129bc565b5085935050505092915050565b60006020820190508181036000830152612a108184612998565b905092915050565b600080fd5b600060608284031215612a3357612a32612a18565b5b81905092915050565b600060208284031215612a5257612a51612209565b5b600082013567ffffffffffffffff811115612a7057612a6f61220e565b5b612a7c84828501612a1d565b91505092915050565b600067ffffffffffffffff821115612aa057612a9f61255f565b5b612aa982612314565b9050602081019050919050565b6000612ac9612ac484612a85565b6125bf565b905082815260208101848484011115612ae557612ae461255a565b5b612af084828561260b565b509392505050565b600082601f830112612b0d57612b0c612555565b5b8135612b1d848260208601612ab6565b91505092915050565b60008060008060808587031215612b4057612b3f612209565b5b6000612b4e87828801612456565b9450506020612b5f87828801612456565b9350506040612b70878288016123a1565b925050606085013567ffffffffffffffff811115612b9157612b9061220e565b5b612b9d87828801612af8565b91505092959194509250565b6000612bb4826127d1565b9050919050565b612bc481612ba9565b82525050565b6000602082019050612bdf6000830184612bbb565b92915050565b60008083601f840112612bfb57612bfa612555565b5b8235905067ffffffffffffffff811115612c1857612c1761288b565b5b602083019150836001820283011115612c3457612c33612890565b5b9250929050565b600080600060408486031215612c5457612c53612209565b5b6000612c62868287016123a1565b935050602084013567ffffffffffffffff811115612c8357612c8261220e565b5b612c8f86828701612be5565b92509250509250925092565b60008060408385031215612cb257612cb1612209565b5b6000612cc085828601612456565b9250506020612cd185828601612456565b9150509250929050565b6000612ce6826127d1565b9050919050565b612cf681612cdb565b82525050565b6000602082019050612d116000830184612ced565b92915050565b7f4e487b7100000000000000000000000000000000000000000000000000000000600052602260045260246000fd5b60006002820490506001821680612d5e57607f821691505b602082108103612d7157612d70612d17565b5b50919050565b7f4552433732313a20617070726f76616c20746f2063757272656e74206f776e6560008201527f7200000000000000000000000000000000000000000000000000000000000000602082015250565b6000612dd36021836122d9565b9150612dde82612d77565b604082019050919050565b60006020820190508181036000830152612e0281612dc6565b9050919050565b7f4552433732313a20617070726f76652063616c6c6572206973206e6f7420746f60008201527f6b656e206f776e6572206f7220617070726f76656420666f7220616c6c000000602082015250565b6000612e65603d836122d9565b9150612e7082612e09565b604082019050919050565b60006020820190508181036000830152612e9481612e58565b9050919050565b7f4552433732313a2063616c6c6572206973206e6f7420746f6b656e206f776e6560008201527f72206f7220617070726f76656400000000000000000000000000000000000000602082015250565b6000612ef7602d836122d9565b9150612f0282612e9b565b604082019050919050565b60006020820190508181036000830152612f2681612eea565b9050919050565b7f4552433732313a20696e76616c696420746f6b656e2049440000000000000000600082015250565b6000612f636018836122d9565b9150612f6e82612f2d565b602082019050919050565b60006020820190508181036000830152612f9281612f56565b9050919050565b7f4552433732313a2061646472657373207a65726f206973206e6f74206120766160008201527f6c6964206f776e65720000000000000000000000000000000000000000000000602082015250565b6000612ff56029836122d9565b915061300082612f99565b604082019050919050565b6000602082019050818103600083015261302481612fe8565b9050919050565b7f496e697469616c697a61626c653a20636f6e747261637420697320616c72656160008201527f647920696e697469616c697a6564000000000000000000000000000000000000602082015250565b6000613087602e836122d9565b91506130928261302b565b604082019050919050565b600060208201905081810360008301526130b68161307a565b9050919050565b6000819050919050565b600060ff82169050919050565b60006130ef6130ea6130e5846130bd565b6127a5565b6130c7565b9050919050565b6130ff816130d4565b82525050565b600060208201905061311a60008301846130f6565b92915050565b7f4e487b7100000000000000000000000000000000000000000000000000000000600052603260045260246000fd5b600080fd5b600080fd5b600080fd5b60008235600160600383360303811261317a5761317961314f565b5b80830191505092915050565b7f4e487b7100000000000000000000000000000000000000000000000000000000600052601160045260246000fd5b60006131c082612380565b91507fffffffffffffffffffffffffffffffffffffffffffffffffffffffffffffffff82036131f2576131f1613186565b5b600182019050919050565b6000819050919050565b613210816131fd565b82525050565b600060408201905061322b6000830185613207565b6132386020830184612415565b9392505050565b60008151905061324e8161281f565b92915050565b60006020828403121561326a57613269612209565b5b60006132788482850161323f565b91505092915050565b60006040820190506132966000830185612415565b6132a36020830184612415565b9392505050565b600080833560016020038436030381126132c7576132c661314f565b5b80840192508235915067ffffffffffffffff8211156132e9576132e8613154565b5b60208301925060018202360383131561330557613304613159565b5b509250929050565b600082905092915050565b60008190508160005260206000209050919050565b60006020601f8301049050919050565b600082821b905092915050565b60006008830261337a7fffffffffffffffffffffffffffffffffffffffffffffffffffffffffffffffff8261333d565b613384868361333d565b95508019841693508086168417925050509392505050565b60006133b76133b26133ad84612380565b6127a5565b612380565b9050919050565b6000819050919050565b6133d18361339c565b6133e56133dd826133be565b84845461334a565b825550505050565b600090565b6133fa6133ed565b6134058184846133c8565b505050565b5b818110156134295761341e6000826133f2565b60018101905061340b565b5050565b601f82111561346e5761343f81613318565b6134488461332d565b81016020851015613457578190505b61346b6134638561332d565b83018261340a565b50505b505050565b600082821c905092915050565b600061349160001984600802613473565b1980831691505092915050565b60006134aa8383613480565b9150826002028217905092915050565b6134c4838361330d565b67ffffffffffffffff8111156134dd576134dc61255f565b5b6134e78254612d46565b6134f282828561342d565b6000601f831160018114613521576000841561350f578287013590505b613519858261349e565b865550613581565b601f19841661352f86613318565b60005b8281101561355757848901358255600182019150602085019450602081019050613532565b868310156135745784890135613570601f891682613480565b8355505b6001600288020188555050505b50505050505050565b600081905092915050565b7f646174613a6170706c69636174696f6e2f6a736f6e3b6261736536342c000000600082015250565b60006135cb601d8361358a565b91506135d682613595565b601d82019050919050565b60006135ec826122ce565b6135f6818561358a565b93506136068185602086016122ea565b80840191505092915050565b600061361d826135be565b915061362982846135e1565b915081905092915050565b600081905092915050565b600061364b8385613634565b935061365883858461260b565b82840190509392505050565b600061367182848661363f565b91508190509392505050565b600082825260208201905092915050565b600061369a838561367d565b93506136a783858461260b565b6136b083612314565b840190509392505050565b600060208201905081810360008301526136d681848661368e565b90509392505050565b7f4552433732313a207472616e736665722066726f6d20696e636f72726563742060008201527f6f776e6572000000000000000000000000000000000000000000000000000000602082015250565b600061373b6025836122d9565b9150613746826136df565b604082019050919050565b6000602082019050818103600083015261376a8161372e565b9050919050565b7f4552433732313a207472616e7366657220746f20746865207a65726f2061646460008201527f7265737300000000000000000000000000000000000000000000000000000000602082015250565b60006137cd6024836122d9565b91506137d882613771565b604082019050919050565b600060208201905081810360008301526137fc816137c0565b9050919050565b7f496e697469616c697a61626c653a20636f6e7472616374206973206e6f74206960008201527f6e697469616c697a696e67000000000000000000000000000000000000000000602082015250565b600061385f602b836122d9565b915061386a82613803565b604082019050919050565b6000602082019050818103600083015261388e81613852565b9050919050565b7f4552433732313a20617070726f766520746f2063616c6c657200000000000000600082015250565b60006138cb6019836122d9565b91506138d682613895565b602082019050919050565b600060208201905081810360008301526138fa816138be565b9050919050565b7f4552433732313a207472616e7366657220746f206e6f6e20455243373231526560008201527f63656976657220696d706c656d656e7465720000000000000000000000000000602082015250565b600061395d6032836122d9565b915061396882613901565b604082019050919050565b6000602082019050818103600083015261398c81613950565b9050919050565b600061399e82612380565b91506139a983612380565b92508282019050808211156139c1576139c0613186565b5b92915050565b7f4e487b7100000000000000000000000000000000000000000000000000000000600052601260045260246000fd5b6000613a0182612380565b9150613a0c83612380565b925082613a1c57613a1b6139c7565b5b828204905092915050565b6000613a3282612380565b9150613a3d83612380565b9250828202613a4b81612380565b91508282048414831517613a6257613a61613186565b5b5092915050565b60008190508160005260206000209050919050565b601f821115613abf57613a9081613a69565b613a998461332d565b81016020851015613aa8578190505b613abc613ab48561332d565b83018261340a565b50505b505050565b613acd826122ce565b67ffffffffffffffff811115613ae657613ae561255f565b5b613af08254612d46565b613afb828285613a7e565b600060209050601f831160018114613b2e5760008415613b1c578287015190505b613b26858261349e565b865550613b8e565b601f198416613b3c86613a69565b60005b82811015613b6457848901518255600182019150602085019450602081019050613b3f565b86831015613b815784890151613b7d601f891682613480565b8355505b6001600288020188555050505b505050505050565b600081519050919050565b6000613bac82613b96565b613bb6818561367d565b9350613bc68185602086016122ea565b613bcf81612314565b840191505092915050565b6000608082019050613bef6000830187612415565b613bfc6020830186612415565b613c09604083018561252b565b8181036060830152613c1b8184613ba1565b905095945050505050565b600081519050613c358161223f565b92915050565b600060208284031215613c5157613c50612209565b5b6000613c5f84828501613c26565b91505092915050565b7f4552433732313a206d696e7420746f20746865207a65726f2061646472657373600082015250565b6000613c9e6020836122d9565b9150613ca982613c68565b602082019050919050565b60006020820190508181036000830152613ccd81613c91565b9050919050565b7f4552433732313a20746f6b656e20616c7265616479206d696e74656400000000600082015250565b6000613d0a601c836122d9565b9150613d1582613cd4565b602082019050919050565b60006020820190508181036000830152613d3981613cfd565b905091905056fe4142434445464748494a4b4c4d4e4f505152535455565758595a6162636465666768696a6b6c6d6e6f707172737475767778797a303132333435363738392b2fa2646970667358221220a195af7f715432e63d05be28debf333afbd8efd45384725e47d374c6c00e752164736f6c63430008120033",
  "linkReferences": {},
  "deployedLinkReferences": {}
}